:020000041000EA
:10000000002008205D0100101B0100101D010010E0
:100010001101001011010010110100101101001058
:100020001901001019010010190100101F01001022
:10003000110100101901001021010010230100100E
:100040001101001011010010110100101101001028
:100050001101001011010010110100101101001018
:100060001101001011010010110100101101001008
:1000700011010010110100101101001011010010F8
:1000800011010010110100101101001011010010E8
:1000900011010010110100101101001011010010D8
:1000A00011010010110100101101001011010010C8
:1000B00011010010110100101101001011010010B8
:1000C00011010010110100101101001011010010A8
:1000D0001101001011010010110100101101001098
:1000E0001101001011010010110100101101001088
:1000F0001101001011010010110100101101001078
:100100001101001011010010110100101101001067
:10011000EFF30580103800BE00BE00BE00BE00BE7A
:1001200000BE00BEF2EB8871FC0102101802021042
:10013000A001001090A31AE7D3DEFFFF42012110B7
:10014000FF010000180F0200793512AB4FF00000DC
:100150001E49086006C881F3088810474FF05040D8
:10016000006810B14FF00000F2E70DA40ECC00299A
:1001700002D000F012F8F9E71549164A002000E015
:1001800001C19142FCD11449884714498847144958
:10019000884700BEFDE701C901C29A42FBD3704700
:1001A0001802021010010020480F00205010021009
:1001B0000000082000000820501002100010082045
:1001C00000100820000000007047000008ED00E06B
:1001D000480F0020208E0220412D001075020010D3
:1001E000052D0010F8B500BF0348044B834202D030
:1001F000034B03B118477047480F0020480F0020F9
:1002000000000000064B0749C91A891048BF013198
:10021000491003D0044B0BB101481847704700BF89
:10022000480F0020480F00200000000010B5064CC9
:10023000237843B9FFF7D8FF044B13B10448AFF359
:1002400000800123237010BDD811002000000000A1
:1002500018DD011008B5044B1BB104490448AFF385
:100260000080BDE80840CDE700000000DC11002060
:1002700018DD0110F8B5032200242B4B2B4D01286B
:100280001D602B4B2B4D2C701A6034DC2A4815F066
:100290005FF810B10378002B3FD1284C04F1100710
:1002A00054F8046B304612F0D1FE78BBA742F7D168
:1002B00040F2FF3222491F4815F010F80023214870
:1002C00085F8FF3302F0D0FE1F4802F0CDFE194939
:1002D0001E4802F04BFF174812F0B8FE90B111F023
:1002E0005BFF012003F036FF11F054FF184802F0C5
:1002F000BBFE0020F8BD40F2FF322846496814F0EA
:10030000EDFFDBE7134802F0AFFEE8E740F2FF3213
:100310003146084814F0E2FFD0E7014640F2FF32D0
:10032000284614F0DBFFC9E70408002018DD01109F
:10033000C80700207474022030DD011054E9011058
:1003400044DD011054DD01107CDD0110A0DD011041
:1003500000DE0110B0DD011010B44FF480740C4BBE
:1003600053F8202003EB8003C00082F0400200F12C
:10037000804003F5805C02F0C00200F5203003F5F8
:100380004053CCF8002041601C605DF8044B70477E
:100390000480034010B4084CC90041EA820154F8BB
:1003A000202004EB8003514003F5805301F00C0141
:1003B0005DF8044B196070470480034030B44FF07F
:1003C000000343EC440043EC400005254FF48074E7
:1003D0000B4BC20053F8201003EB800081F040016A
:1003E00002F1804303F5203301F0C00200F5805193
:1003F00000F540500A605D60046030BC704700BF8B
:10040000048003400FB400B583B0049C074802F099
:100410002BFE3CB105A92046019102F0F3FB0448F4
:1004200002F022FE012002F005FC00BF60DE011098
:100430001CE1011070B58646EFF3108572B6124CC0
:10044000D4E8CF6F0120002EFAD1C4E8460F002E69
:10045000F6D1BFF35F8F4FF0010CC80801F007031E
:100460000CFA03F31EF800C01CEA030608D14CEA9C
:10047000030C0EF800C0C4E88F6F85F3108870BDC0
:100480001046FFF7BFFF00BFD7690220044A10786B
:10049000431CDBB2182B28BF10231370704700BF1A
:1004A000900700204FF0E022936843F000539360E0
:1004B000704700BF0021044B03F12002C3E88F1FE7
:1004C00001339342FAD17047CC6902204FF0E02308
:1004D0004FF08032C3F80024C3F80424C3F8082482
:1004E000C3F80C24C3F81024C3F81424C3F8182448
:1004F000C3F81C24C3F82024C3F82424C3F82824F8
:10050000C3F82C24C3F8302462B67047012300F0EE
:100510001F029340400941B1800000F1604000F5A6
:100520006140C0F8803103607047024A203042F8D1
:100530002030704700E100E0F8B50D46EFF310877A
:1005400072B6124ED6E8CF2F0123002AFAD1C6E8A0
:10055000423F002AF6D1BFF35F8F0D4B00F110042C
:100560009B680C4A53F82430934203D0994201D03F
:1005700000F0AAFD064B9B6843F82450BFF35F8F41
:100580000023C6E88F3F87F31088F8BDD5690220A5
:1005900000ED00E011010010014B0B4403607047B7
:1005A000CC69022070B5104C104DAC420ED2FF2623
:1005B000236863B1FFF76AFF01462046FFF7ECFFAF
:1005C000A680BFF35F8F0834AC42F1D370BDFFF754
:1005D0005DFF01462046FFF7DFFF2671BFF35F8F07
:1005E0000834AC42E4D370BD400F0020480F002017
:1005F0000D4B1A68EFF3108172B6D2E8CFCF01200D
:10060000BCF1000FF9D1C2E84C0FBCF1000FF4D1DE
:10061000BFF35F8F00221B68C3E88F2F81F3108820
:1006200040BF002000217047947E0220000000009F
:100630002DE9F04F2DED028B85B0EFF30583DBB292
:10064000103B9A0818BF01224FF0010103F003008C
:1006500018BFAF4DAF4B08BFAF4D00EB820253F850
:10066000226001FA00FB05F541539FEDA78B019035
:10067000C3F804B02EE0B388180440F19280B37937
:10068000002B40F0DC80B6F908100029C0F21D8173
:10069000736901EB410103EBC103D3E90247B7F1F1
:1006A000FF3F08BFB4F1FF3F0DD0019B05EB830175
:1006B000AB6A0A69D21AE31A934203D32B6A13EA8C
:1006C0000B0F00D10C61284600F0BCFBA042B941E1
:1006D000C0F2FB80B6F90830C5F83CB0002B00939F
:1006E000C9DBD6F8149003EB430A284609EBCA0786
:1006F000D7E9024800F0A6FBA04271EB0801BADB83
:10070000B8F1000FC0F2C380D7E90431834A9342A5
:1007100000F0ED807A88B6F9080092B242EA004013
:10072000984702460B4652EA030100F0B080002BC6
:1007300080F2D180B4EB020E68EB030839F93A304D
:10074000C7E902E8002B96DB716903EB430201EB7A
:10075000C202D2E90270BE4578EB000C4FEA4302B8
:1007600089DBB4462CF8083F0BE031F93230A4465F
:10077000002B0DDB03EB430001EBC0005A00D0E976
:100780000270BE451A4478EB000001EBC204ECDABB
:1007900029F83A30009BACF80030B38818043FF5D4
:1007A0006EAF3369EFF3108272B6D3E8CF0F012139
:1007B0000028FAD1C3E8401F0028F6D1BFF35F8FAD
:1007C0004FF6FF74B0880023316900B2B480C1E8ED
:1007D0008F3F82F310889842FFF651AF0746A94633
:1007E000746906F1080807EB470E04EBCE03D3E962
:1007F0000250B6F90830C446002B13DBB24600970E
:1008000004E034F936309446002B09DB03EB430651
:1008100004EBC602D2E90271BD4270EB0101F0DACD
:100820005646009FACF8007034F93E7024F83E3014
:10083000002FD8DAB3794D46002B3FF424AF0023C4
:10084000B371B6F9083006F10808591C3DD01946B5
:10085000776903E080465A1C3FF417AF03EB43026D
:1008600007EBC200B0F802C01C461CF4004F9E46C5
:1008700037F93230EED08C4280ED028B05D0A8F8EB
:100880000030318927F8321034817146E3E739F8B6
:100890003A3033813369EFF3108272B6D3E8CF0F69
:1008A00001210028FAD1C3E8401F0028F6D1BFF388
:1008B0005F8F7388316929F83A30009B7380002379
:1008C000C1E88F3F82F31088D5E640BF05B0BDEC8C
:1008D000028BBDE8F08F2846CDE9022300F0B2FA82
:1008E000029A039B10EB020E43EB010826E7084631
:1008F0000B69029198470028C9D00299D1E90023D9
:1009000011E700BFAFF30080FFFFFFFFFFFFFFFF16
:1009100000800B405470022000000B403106001094
:100920002DE9F84F364C25692DB1BDE8F84F0A2165
:100930003448FFF731BEDFF8E4800321404600F081
:100940006FFA0326C4F80C80FFF7A0FD4FF0504C5F
:100950002D4B267003442361DCF800300F216370B7
:10096000636961801D834FF00405A3F878504FF050
:100970000505A3F890504FF00605A3F8A8504FF0D6
:1009800007050E214FF6FF7208274FF00A0EA3F855
:10099000C0504FF001094FF00C0C4FF0020B4FF01C
:1009A000090A0D204FF00B05A3F868111749A28022
:1009B000A3F808E1A160A3F848B0A3F8F0A0A3F859
:1009C0002051A3F838C1A3F85001A3F83090A3F840
:1009D0006060A3F8D8701A800D4B3046C8F82070BC
:1009E0000C49DC60FFF7A8FD49463046FFF78EFD55
:1009F000094B0A211F640348BDE8F84FFFF7CCBD3F
:100A000094070020947E0220CC690220FFFF100092
:100A1000547002203106001000200B4000000B40F3
:100A200000487047940700200146F0B50069EFF3D5
:100A3000108772B6D0E8CF5F0124002DFAD1C0E84C
:100A4000454F002DF6D1BFF35F8FB1F902E04C693D
:100A50000EEB4E0CBEF1000F4FEACC0504EBCC0CB4
:100A60003DDB605B002648800869C0E88F6F87F334
:100A70001088BCF80200CCE902230130C0F30E005C
:100A8000012838BF0120059BACF80200CCF81030DB
:100A9000069B40EA0E40CCF814300B69EFF310824D
:100AA00072B6D3E8CFCF0127BCF1000FF9D1C3E86C
:100AB0004C7FBCF1000FF4D1BFF35F8F8B88635381
:100AC000A1F804E00B69C3E88F6F82F3108801225C
:100AD000CB68097803F501538A405A60F0BD0023C2
:100AE0000A69C2E88F3F87F310884FF0FF30F0BDEE
:100AF00003464089B0EB214F37DD58690A1402EBF9
:100B0000420210B500EBC2001C69EFF3108C72B604
:100B1000D4E8CFEF0122BEF1000FF9D1C4E84E2F87
:100B2000BEF1000FF4D1BFF35F8F428889B292B259
:100B30008A4207D000221B69C3E88F2F8CF31088EC
:100B4000002010BD42F400424280012100221869B9
:100B50009971C0E88F2F8CF310881C78DA680846EA
:100B600002F50153A140596010BD0020704700BF3D
:100B70002DE9F04306460D4683B0EFF30584E4B259
:100B80003CB1274B586AA8421CD2002003B0BDE8F4
:100B9000F083244FD7F80C9097F80080484600F077
:100BA00051F908F1040859F828301B1A301A65EB7E
:100BB0000101984271F1000111DB20BF184B586A06
:100BC000A842E2D39B6AB34203D3012003B0BDE83D
:100BD000F083401B18BF012003B0BDE8F08300F094
:100BE00039F9864265EB01010029CADB0E4B384614
:100BF000CDE9003432462B46FFF716FF011EC0DD5B
:100C0000074B5A6AAA4208D39B6AB34203D30548EA
:100C1000FFF76EFFB5E7AA42F9D120BFF7E700BFA3
:100C200000000B4094070020F10500102DE9F04171
:100C30000446DDE9071552EA030070D0002B164682
:100C40001F4671DB0698C5E900232861AC60696125
:100C500000F000F94FF0FF326FF00043801947EBCE
:100C60000107824273EB07013CBF1F461046236910
:100C7000EFF3108872B6D3E8CF1F01220029FAD112
:100C8000C3E8412F0029F6D1BFF35F8FB4F90260AA
:100C9000616906EB4603002E4FEAC30C01EBC30368
:100CA00046DB31F80C204FF0000E62802269C2E86A
:100CB0008FEF88F310885A88C3E902070132C2F324
:100CC0000E02012A38BF01221F485A805D61186157
:100CD00042EA06422369EFF3108072B6D3E8CF8F61
:100CE0000127B8F1000FF9D1C3E8487FB8F1000F30
:100CF000F4D1BFF35F8FA38821F80C30A68023695D
:100D0000C3E88FEF80F3108801202178E36800FAB0
:100D100001F103F501535960EA60BDE8F081012655
:100D2000002732463B468DE7564263EB430789E78F
:100D300000202369C3E88F0F88F310884FF0FF323B
:100D4000EA60BDE8F08100BF310600100246C068CD
:100D500000B9704791680314B1F80AC0BCEB204F8A
:100D60003DDD30B54C6903EB430304EBC30C0B6969
:100D7000EFF3108E72B6D3E8CF5F0124002DFAD1C5
:100D8000C3E8454F002DF6D1BFF35F8F83B2BCF8A7
:100D9000020080B2834209D000230969C1E88F3F75
:100DA0008EF3108800230020D36030BD43F400434D
:100DB000ACF802304FF0010C0023086981F806C03E
:100DC000C0E88F3F8EF31088CB68097803F5015394
:100DD0000CFA01F1596000236046D36030BD002356
:100DE0000020D360704700BF084AD0E90003516A71
:100DF0008B4204D8926A824203D3012070470020BC
:100E00007047581A18BF0120704700BF00000B4000
:100E100001460248C1E90023704700BFE90D0010F8
:100E200010B4054B054C064AA04214BF1846581C86
:100E30005DF8044BFFF7FEBAEC6A022000800B401D
:100E400070DE01100346416A0A46986A596A8A426E
:100E5000FAD17047034B596A0A46986A596A914217
:100E6000FAD1704700000B4010B4174A536A9C46F1
:100E7000946A536A6345FAD1001959414FF0000250
:100E800028BF01220346CAB10F4B596A4B1C08BF49
:100E90000B4608D04FF0FF310B460B48426A8A429E
:100EA000FCD38A4207D1084A02E0506A884202D144
:100EB000906A9842F9D35DF8044B7047024A526A2F
:100EC0009142EAD8EDE700BF00000B4000EB400C78
:100ED0004FEA8C0C0CF1804C0CF5803CF0B51646BA
:100EE000DCF80420051FB2F5803F38BF4FF4803294
:100EF000EDB238BFCCF80420012D2AD94FF4006799
:100F0000254C0CF54052176054F82020B2B9DCF89B
:100F10000020012D82EA461202F0E0020CF5805614
:100F200032602AD94FF4006144F820304FF4803306
:100F30000CF500521160CCF80430F0BD6769B7FBC6
:100F4000F2FE0EF1010E0EEB4E0EBEF1030EFCD2C0
:100F5000DDE70129D2D103240CF540521460DCF8FE
:100F60000820D207FBD5DCF800200B4C82EA4612A1
:100F700002F0E0020CF5805632600122DCF80050ED
:100F80004D4005F00305356002FA01F1DCF8082058
:100F90000A42FBD0C6E700BFF46A0220014B53F8B7
:100FA00020007047F46A022070B4039D04682D038A
:100FB00045EA03451B4B002CB3FBF1F3B2FBF3F600
:100FC0001FDB194A194B904214BF4FF480424FF473
:100FD0000042174C1A6003F580531A60A36832EA86
:100FE0000303FBD1212200F54053043301608660E6
:100FF0001A600268002AFCDA0822C5601A6070BC18
:101000007047036803F03F038B42DAD18368C3F370
:101010000B03B342D5D1C36803F4EE23AB42D0D166
:10102000EDE700BF001BB700008005400020024034
:1010300000000240012300EB4000800000F18040EE
:1010400000F5841041600360704700BF0023DB8A15
:10105000002242E800F2520201D410211847042174
:10106000184700BF034AD2F82838002BFBD0BFF343
:101070005F8F704700000E400021044B044ABFF30D
:101080005F8F43F8041B9342F9D170470C080E4060
:101090002C080E4010B44FF48D704FF42A64064AA9
:1010A000064B07491460D06019605368002BFCDAC6
:1010B0005DF8044B704700BF0080044000A004406E
:1010C00000B0FA00704700BF08B50148FFF79AF971
:1010D00094DE011038B5054C054DAC4204D254F8ED
:1010E000043B9847AC42FAD338BD00BFD0DC0110B6
:1010F00010DD011010B40748074C084B084A094995
:1011000004601A608B6832EA0303FBD15DF8044B7C
:10111000704700BF002002407F3BEFEF00300240ED
:10112000F6FFF30300000240044BDB6CB3F5004F05
:1011300003D14FF48022024BDA6470470000115053
:10114000002011504FF0E022044BD2F8881D0B43D1
:10115000C2F8883D10EE3004704700BF0303300032
:101160006FF06041044B054A19609368DB4333F02C
:101170006043FAD1704700BF0030024000000240D7
:1011800010B545F25320FFF761FFBDE8104003465C
:101190000420184710B545F25320FFF757FFBDE86C
:1011A0001040034601201847FFF784B970B5144971
:1011B000144C154D641AA610442E324628BF442202
:1011C0002846920017F0B6FCB4F5867F13D80F4A74
:1011D000C6F1440112D02B19480803EBC000C3E943
:1011E000002208338342FAD1CB0704D521F0010352
:1011F000334445F82320064B9D6070BD4323F8E738
:10120000000000101001001000000020110100106B
:1012100000ED00E0002370B52B4C82B0C4F88430A0
:10122000FFF738FF0122294BDA63636C012BFCD1F5
:101230000321264A244B11639C6B012CFCD102260E
:10124000052521460523224A22480096FFF7ACFED9
:1012500021462B46204A21480095FFF7A5FE002293
:10126000042031461E4BFFF731FE2146284600225E
:101270001C4BFFF72BFE0022082011461A4BFFF7EC
:1012800025FE002209201146174BFFF71FFE002202
:1012900006201146134BFFF719FE0022114B0720C1
:1012A0001146FFF713FE0420FFF778FE00240F4BD2
:1012B000A3FB0035AD0CE0B229460134FFF7BAFEBE
:1012C000062CF8D102B070BD000001400030014092
:1012D000002F685900000540008C864700800540BB
:1012E000001BB70080D1F008006CDC0283DE1B43DA
:1012F00086B003B451FC0804CDE9020151FC090495
:10130000CDE9040151EC0A04CDE9060103BCF04724
:10131000BDE800504EEC00C4BDE800504EEC01C4E6
:10132000BDE800504EEC02C400BD000000B5FFF760
:10133000DFFF02E010FE30F4F8D441EC100443EC7F
:10134000112400EE010410EE010480EE200451ECA3
:101350001004704700B5FFF7CBFF02E010FE30F439
:10136000F8D441EC100443EC112400EE010410EE1B
:10137000210480EE200451EC3004704700B5FFF7E3
:10138000B7FF02E010FE30F4F8D410B541EC1004C1
:1013900043EC112451EC040453EC0524A0FB024C53
:1013A0005FF0000EE0FB03CEE1FB02CE4CEC2044EC
:1013B0000024E1FB03E444EC30E480EE200451EC33
:1013C0005004BDE81040704700B5FFF791FF02E000
:1013D00010FE30F4F8D441EC100443EC112451EC2D
:1013E0002104A0FB01126FEA820252FB100052FBA3
:1013F00012F252FB1000A0EBD07C53EC04245CFBF7
:1014000013F153EC1524A1FB022001FB030053EC64
:101410004424A2EB000050FB1CF24FEA111312EB24
:10142000017043EBE27140EA515020EA915020F004
:10143000070053EC7524A0FB023C53EC752400FB21
:1014400003CC01FB02CC53EC0424ACEB824C40EA0D
:101450005C70A0F1010041EC400480EE200451ECEE
:101460007004704700B5FFF743FF02E010FE30F450
:10147000F8D441EC100480EE220410EEB204704760
:1014800000B5FFF735FF02E010FE30F4F8D440EC71
:10149000700400EE010410EE210480EE200451ECF3
:1014A0003004704700B5FFF723FF02E010FE30F470
:1014B000F8D440EC600400EE010410EE210480EE4C
:1014C000200451EC3004704700B5FFF711FF02E033
:1014D00010FE30F4F8D441EC800400EE010410EE6C
:1014E000010480EE400410EE1304704700B5FFF7CE
:1014F000FFFE02E010FE30F4F8D441EC800400EE70
:10150000010410EE010480EE400410EE3304704735
:1015100000B5FFF7EDFE02E010FE30F4F8D441EC28
:10152000100443EC112400EE010410EE3004C0F36B
:101530000070704700B5FFF7DBFE02E010FE30F4EC
:10154000F8D441EC100443EC112400EE010410EE39
:101550003004C0F38070704700B5FFF7C9FE02E0A9
:1015600010FE30F4F8D443EC102441EC110400EEEA
:10157000010410EE30F48CBF01200020704700BF42
:1015800000B5FFF7B5FE02E010FE30F4F8D443ECEE
:10159000102441EC110400EE010410EE30F42CBFD5
:1015A00001200020704700BF00B5FFF7A1FE02E058
:1015B00010FE30F4F8D441EC100443EC112400EE9A
:1015C000010410EE30F42CBF01200020704700BF52
:1015D00000B5FFF78DFE02E010FE30F4F8D441ECC8
:1015E000100443EC112400EE010410EE30F48CBF23
:1015F00001200020704700BF17F094BA704700BF69
:101600002DE9F04F83B09946DDE90DAB0F9B88467D
:1016100011469A07074616D1DA453AD20C460D46CE
:10162000ABEB0A060E4422464B46414620200134CD
:10163000B847B442F7D12946BAF1000F08D1204685
:1016400003B0BDE8F08F0C46BAF1000F10D00E4683
:1016500055460C9B2E449A440191721B4B46013D0A
:1016600041461AF8010D3446B847002DF5D10199CD
:101670000F9B9B07E3D5651AAB45E0D922464B4645
:10168000414620200135B8475D4504F10104F5D3FA
:10169000D5E7BAF1000FDAD10C46D0E72DE9F04FCB
:1016A0000F9FDDF824E017F0020F0A9C9DF82C90A4
:1016B0000E9DDDE90C8629D1002D6FD1B44225D2D3
:1016C000202C07F0010B00F0128104F1FF3C4FF0D9
:1016D000300AF44401E0202C7AD00134A6420CF800
:1016E00001AFF8D8BBF1000F10D0AC420ED2202CC5
:1016F00074D004F1FF3C4FF0300AF44401E0202C98
:1017000029D00134AC420CF801AFF8D117F0100F1A
:101710003AD017F4806F28D11CBBB8F1100F00F03D
:10172000CA80B8F1020F00F0D48030248EF8004057
:101730000124B9F1000F67D17E0740F1AA802B2662
:101740000EF804600134CDE90B57CDE909E4BDE89A
:10175000F04FFFF755BFFC0640F189807C0535D47A
:101760002024A6426AD0AC4268D0B8F1100F00F035
:101770008780B8F1020F5AD0202CE4D026460134DD
:101780004FF0300C0EF806C0202CD2D1CDE90B570B
:10179000CDE909E4BDE8F04FFFF732BF17F0010BC8
:1017A0003ED0B9F1000F47D117F00C0F44D1B4422D
:1017B0009BD2202C89D1202D10D8FC0657D57C0532
:1017C00055D4202E00F0B980202D10D02024CCE755
:1017D000BBF1000F00F0A580202DBCD9FC0646D53A
:1017E0007C0544D4202E00F0A880202D3FD12C462B
:1017F0001F26B8F1100F7FD0B8F1020FC0D14FF003
:10180000620C0EF806C0B7E72D260EF8046001340E
:10181000CDE90B57CDE909E4BDE8F04FFFF7F0BE85
:10182000B442BFF473AF202C7FF44FAFD6E7202C27
:1018300089D026460134E2E7013DB8E7661ED8D1DB
:10184000B8F1100F64D0B8F1020F7FF46EAF6226CA
:101850008EF80060302644468EF80160B9F1000F22
:101860003FF46AAFD0E7B8F1100F7FF46CAF2024DB
:10187000CDE90B57CDE909E4BDE8F04FFFF7C0BE55
:10188000BE060ED4202CF2D078260EF80460013467
:1018900072E73E077FF557AF20260EF8046001344B
:1018A00051E7202CE3D04FF0580C0EEB040686F8DD
:1018B00000C0013460E7BE0617D558248EF80040FA
:1018C00030248EF801400224B9F1000F3FF434AF08
:1018D0009AE762248EF8004030248EF801400224FA
:1018E000B9F1000F3FF428AF8EE77824F2E7BBF19F
:1018F000000F7FF462AF71E717F0200F0CBF4FF0BD
:10190000780C4FF0580CA61E0EF806C0013C35E7C7
:10191000BC06EAD558248EF8004030248EF80140E9
:10192000DDE717F0100F3FF40EAF17F4806F9AD178
:10193000202E7FF418AF1F265BE734461F2658E79A
:1019400000B9704701F04EBB10B1D1E90031184722
:10195000704700BF000000002DE9F04F9FB09DEDE3
:10196000287BDDE92AA558EC177B83461E460D919E
:10197000109243463A46384641468DED087B2C9CF2
:10198000FFF7CAFD002840F0D880384641464FF0A6
:10199000FF32754BFFF720FE002840F0CE8038461E
:1019A00041464FF0FF326FF48013FFF7D9FD002856
:1019B00040F0C380DDE90878002238464146002324
:1019C000FFF7CEFD002840F0C081CDE90A78DDE9BF
:1019D0000A2390461F4614F4806308BF4FF0060A9E
:1019E000139304F4006258EA0703119240F0C08098
:1019F000002A00F0A2819FED5A7B00278DED0E7B1F
:101A00004FF00009BA45CCBFAAEB070A4FF0000A15
:101A10004F46C8BF0AF1FF3A44F480644D4594BF75
:101A20004FF00008A5EB090814F00203119304D04D
:101A3000B9F1000F18BF4FF000083FB1DDE90A010E
:101A4000DDE90E23FFF7C4FCCDE90A01DDE9080159
:101A500000220023FFF784FD30B1DDE90A010246D0
:101A600001F10043CDE90A239DED0A7BCDE902A8EF
:101A7000DDF834A024F4006304938DED007B33463D
:101A800051465846109A00F097F98046B9F1000F78
:101A90004FD014F0200F024600F1010433460CBF72
:101AA000652045205146D84709F1FF3087EAE77C99
:101AB0000DF1580900224B46DFF8B080ACEBE77C13
:101AC0004FEAD77E01E0202A10D0E246A8FB0C7135
:101AD000C90801EB8107ACEB47073037BAF1090FB2
:101AE0008C4602F1010203F8017BECD80523059036
:101AF000069300200A230D9FCDE90330CDE9012E86
:101B00003346224639465846CDF80090FFF7C6FDC9
:101B1000119B80466BB1109BC41AA54209D942465D
:101B20003346394620200134D847A54208F1010840
:101B3000F5D840461FB0BDE8F08F9DED087B3346D9
:101B40005846109A0D998DED287BCDE92B54CDF890
:101B5000A8A01FB0BDE8F04F00F02EB9AFF3008091
:101B60000000000000000000FFFFEF7FCDCCCCCCD8
:101B7000C7F30A50A0F2FF30FFF786FC8AA3D3E92F
:101B80000023FFF7FFFB8AA3D3E90023FFF7D2FB73
:101B9000C7F31307CDE90E0147F07F5140460022FD
:101BA0007B4B41F44011FFF7D9FB6BA3D3E9002332
:101BB000FFF7E8FB02460B46DDE90E01FFF7BAFB33
:101BC000FFF786FC0746FFF75FFC65A3D3E9002318
:101BD00080468946FFF7D6FB00226E4BFFF7AAFB33
:101BE000FFF776FC03464946404612935EA3D3E9CD
:101BF0000023FFF7C7FB804612988946FFF744FC95
:101C00005BA3D3E90023FFF7BDFB02460B4640462A
:101C10004946FFF7A3FB02460B4680468946FFF77D
:101C2000B1FB42464B46CDE90E0140464946FFF71F
:101C300081FB0022CDE91401DDE90E01564BFFF7CF
:101C4000C7FB0022554BFFF775FB02460B46DDE94B
:101C50000E01FFF7BDFB0022514BFFF76BFB024665
:101C60000B46DDE90E01FFF7B3FB42464B468046CB
:101C7000894600204FF08041FFF770FB02460B467B
:101C800040464946FFF756FB02460B46DDE9140184
:101C9000FFF79EFB0022434BFFF74CFB129B0022F9
:101CA00003F2FF3C4FEA0C53FFF76CFB804689467A
:101CB000DDE90A0142464B46CDE90E89FFF750FCAB
:101CC00068BB4346494607F16302C62A119A8CBF96
:101CD0004FF005094FF00409002A3FF49FAE0B4373
:101CE0003FF48EAEDDE90A0123A3D3E90023FFF719
:101CF0005FFC48B1DDE90A0121A3D3E90023FFF726
:101D00002FFC00287FF47CAEBAF1000F3FF486AEC2
:101D1000139B002B3FF482AE0AF1FF3A7EE60022CD
:101D20001E4B40464946FFF753FB0A460146034611
:101D3000CDE90E12013F1146C5E79FED137B174613
:101D40004FF004098DED0E7B68E608F100430A9719
:101D50000B933CE6AFF3008061436F63A787D23FEC
:101D600071A379094F930A401655B5BBB16B024078
:101D7000EF39FAFE422EE63F2D431CEBE2361A3FC6
:101D80000000000080842E410000000000000000E0
:101D90000000F83F0000E03F00002C40000024401D
:101DA000000018400000F03FFB799F501344D33FE0
:101DB000B3C8608B288AC63F2DE9F04F97B0DDE9A4
:101DC0002089CDE90401DDE9224BCDE90623404617
:101DD00042464B464946DDF890A0FFF79DFB0028A0
:101DE00040F0C581404649464FF0FF326FF4801302
:101DF000FFF7B6FB002840F01D81404649464FF0F2
:101E0000FF32C14BFFF7E8FB002840F0E380B8A3A6
:101E1000D3E9002340464946FFF7DEFB002840F0A7
:101E2000CB80B5A3D3E9002340464946FFF798FB92
:101E3000002840F0C1804046494600220023FFF7B9
:101E40008FFB002840F0E0801AF480650D9000F0D0
:101E5000E980092C40F296810EAB1A460C93302192
:101E60000023A4F109050133202B02F8011BA4EB88
:101E7000030600F03A81AB42F5D19FED9D7B8DEDDD
:101E8000087B49464046FFF723FB0446FFF7FCFA70
:101E900002460B4640464946FFF760FADDE9082353
:101EA000FFF770FA02460B46CDE90A23FFF722FB43
:101EB0000746FFF7FBFA02460B46DDE90A01FFF78A
:101EC0004DFA02460B46CDE90A2300228F4BFFF75D
:101ED00083FB002800F0DB8001373846FFF7E6FA85
:101EE000DDE90823FFF764FB08B100270134002E69
:101EF00040F0B1802046FFF7C7FA02460B46404645
:101F00004946FFF72BFA0022804B06460F46FFF7A3
:101F100027FB40B93046394600227C4BFFF75CFB7B
:101F2000002800F015810C9B691E7948194410E0C7
:101F300080FB0462C3EBA20303EB8302A4EB420425
:101F400004F1300201351C4601F8012F002B00F08E
:101F5000AB80202D4FEAE473EAD10AF00303012B92
:101F60001CD1BBF1000F19D00D9B002B40F0F98064
:101F70001AF00C0F40F0F580AB4540F2D380202DD5
:101F80000BD030220C996B1E0B4401355D4503F8D4
:101F9000012F00F08D80202DF7D12025DDE90623CB
:101FA000DDE904010C9CCDE902BA01950094FFF72C
:101FB00027FB17B0BDE8F08FCDE92089DDE90623C6
:101FC000DDE90401CDE923BA229417B0BDE8F04F52
:101FD000FFF7C2BC4F4DCDF88CA00AF0040ABAF14D
:101FE000000F4D4C18BF2C46DDE90623DDE9040146
:101FF00020940CBF03240424CDF888B0219417B09A
:10200000BDE8F04FFFF7FCBA4B46424600200021E6
:10201000FFF7A4F901231AF48065804689460D93E1
:102020007FF417AF9FED367B0EAB06268DED087B58
:102030000C9326E70424DDE90623DDE90401374D8E
:10204000CDF88CA0CDF888B02095219417B0BDE8CC
:10205000F04FFFF7D5BA0C9B681EDFF8C4C01844D8
:102060000DE0ACFB0721C90801EB8102A7EB42029E
:102070003032092F00F8012F27D90F461D46202D99
:1020800005F1010306F1FF36EBD120254BE70022D5
:10209000DDE90A011D4BFFF763FA00287FF427AF43
:1020A000002F5AD1013722E70AF00303012B75D024
:1020B000202D3FF473AF0D9BBBB32D2205F15803C8
:1020C0006B4403F8202C013568E7202BDDD0AEB33C
:1020D0000C9A1E441544302201E0B3422ED0013345
:1020E000202B05F8012FF8D1CFE71D46C5E600BF2C
:1020F0000000000065CDCD410000000065CDCDC1E0
:102100000000000080842E41FFFFEF7F0000E03FD1
:1021100067666666D4DE0110DCDE0110E4DE0110C5
:10212000CDCCCCCC202D3FF439AF1AF0040F0DD11B
:102130001AF0080F3FF432AF2022BFE72E2103F13F
:1021400058026A4402F8201C5D1CECE62B22B5E71D
:10215000E3077FF5E8AE0134E5E6FA077FF5C7AEA1
:10216000A0E70BF1FF3BAB453FF609AFA0E7032427
:10217000DDE90623DDE904010A4DCDF88CA0CDF898
:1021800088B061E7084B264603EBC40393ED007B60
:102190000EAB8DED087B00250C9372E6BBF1000FB2
:1021A00086D0E1E6E0DE0110C8E901102DE9F04F2C
:1021B0009A469BB0249C964D0B94964C0B1E18BFD0
:1021C000834625609AF80000934C0A9308BFA34603
:1021D0000992002800F0BC824FF000090AE04A464C
:1021E000099B0A9909F10109D8479AF800000028CB
:1021F00000F0CE8025280AF1010AF0D100235246D2
:1022000012F8010BA0F1200110290AD8DFE801F033
:102210004009093C0909090909090938093409096A
:102220003000A0F13001092940F28C802A2800F00A
:10223000F58000210C912E2800F099800027A0F154
:10224000680112292DD8DFE811F057012C00510147
:102250002C0045012C002C002C002C002C002C0004
:102260002C0027002C002C002C002C002C00270018
:10227000924643F00103C2E7924643F00203BEE7F1
:10228000924643F00403BAE7924643F01003B6E7E0
:10229000924643F00803B2E79AF8010043F48073D2
:1022A00001326728924600F28280242840F2C680DC
:1022B000A0F12502422A00F2C180DFE812F05F019E
:1022C000BF00BF00BF00BF00BF00BF00BF00BF0016
:1022D000BF00BF00BF00BF00BF00BF00BF00BF0006
:1022E000BF00BF00BF00BF00BF00BF00BF00BF00F6
:1022F000BF00BF00BF00BF00BF00BF00BF0026017E
:1023000045012601BF00BF00BF00BF00BF00BF00E6
:10231000BF00BF00BF00BF00BF00BF00BF00BF00C5
:10232000BF00BF00D301BF00BF00BF00BF00BF00A0
:10233000BF00BF00BF00BF00D3016701D30126016A
:1023400045012601002100E0013201EB810100EB93
:10235000410110789246A0F13004092CA1F130011E
:10236000F2D92E280C9102F101027FF467AF9AF89E
:1023700001001146A0F13006092E43F4806340F2BB
:1023800031812A2800F03E8192460027013256E72B
:102390004C46099B994501D303F1FF394A46002079
:1023A000099B0A99D84720461BB0BDE8F08FA0F1E1
:1023B0006902D2B20F2A41D8012649F24101964062
:1023C0000E4040F001810A2A3FD0072A36D10B9CEB
:1023D00054F8042B002A00F0288143F021010DF16C
:1023E000480E704603E0202E00F029811A4602F0C4
:1023F0000F052B46092D94BF303337330F2A00F8D1
:10240000013B06F101064FEA1213ECD817E100BFB9
:10241000AD210010CC6D0220FD1500100B9C9AF828
:10242000010054F8045B9246002DBDBF694243F0A1
:1024300002030C910C950B940132FCE64A46099B71
:102440000A9909F10109D847CFE60B9951F8048B95
:1024500098F800201046002F40F0E18072B16FF034
:10246000010C0CF1010C4646C44401E0664503D062
:1024700016F8014F002CF9D1A6EB080613F4806C76
:1024800002D0BE4228BF3E4613F0020400F087810E
:10249000002A00F02B81BCF1000F00F041810B9469
:1024A0000D964A46DDE909540E464F4408E02B4696
:1024B0002146D84718F8010F09F1010910B14A4621
:1024C0004F45F4D131460B9C0D9E002C40F00E81FF
:1024D0000B918AE69AF801006C287FF4DFAE9AF837
:1024E000020043F440730AF10302DAE69AF80100AD
:1024F00043F400730132D4E69AF80100682800F032
:10250000208143F080030132CBE6672800F0E780AA
:10251000472800F00081452800F0FF800B9C0493C1
:102520000C9B0734CDE9027324F007031C46DDE958
:102530000931F4E802674A465846CDE900670B9432
:10254000FFF70AFA814650E646280B9C08BF43F085
:10255000200304930C9B0734CDE9027324F0070396
:102560001C46DDE90931F4E802674A465846CDE9E0
:1025700000670B94FFF720FC814636E64A4625208B
:10258000099B0A9909F10109D8472EE60B9A9C0785
:1025900002F1040709F1010640F1E6801078099B79
:1025A0004A460A99D8470C9B012B40F22C81DDE961
:1025B0000954994432462B46214620200136D847FB
:1025C0004E45F7D10B9710E66F2800F08B8040F254
:1025D0006581782800F008814FF00A0823F0100385
:1025E000C44647E0002707EB870700EB4700A0F150
:1025F000300711F8010FA0F13002092AF3D98A46F9
:102600004A1C1CE60B9C9AF8020054F8047B0AF161
:10261000020A0AF101020B9427EAE7770FE6002A83
:102620003FF42CAF07F1FF3C1BE723F0100113F43C
:10263000806241F021013FF4D2AE0DF1480E082333
:102640001020059300234A46CDE9023006915846F2
:10265000DDE90931CDE900E60497FFF71FF80B9497
:102660008146C2E5582879D0622840F051824FF067
:102670000208C44613F480606DD123F00C0313F4F8
:10268000007240F0C2800B9904310D9113F48071F7
:1026900040F02E825E060B9A40F1AA801278002A42
:1026A00040F0DA8023F01003002800F0D5801146B6
:1026B0000DF1480E06930C9BCDF80CC0CDE90473C8
:1026C000019100234A4602935846DDE90931CDF8CD
:1026D00000E0FEF7E3FF0D9B81460B9385E543F495
:1026E00000631BE74FF00808C446C3E70C9B4C4649
:1026F000B3427FF6EDAE0F464B44A3EB0609DDE98E
:10270000096522463346294620200134D8474C45E6
:10271000F7D13946DCE643F4006343F02003FDE6DD
:102720000F460B94DDE909544A462B462146D8470B
:1027300018F8010F09F101090028F5D139460B9C61
:10274000C3E69AF8020043F0C0030AF10302A8E5C9
:10275000044681461DE623F00D0390E74FF0100874
:1027600043F02003C44685E70C9B012B45D9DDE9E6
:1027700009544E4609F1FF38984432462B4621460B
:1027800020200136D8474645F7D10C9B3246994464
:102790000B9B1878DDE90931D8470B9725E50C9B91
:1027A000B34240F2EE81CDE90D48DDE90954884697
:1027B0004B449E1BCDF82CC04A462B462146202078
:1027C00009F10109D847B145F6D14146DDF8388015
:1027D0000C9BDDF82CC00D9C98F800205E1C104668
:1027E000002A7FF458AE73E64FF01008C44641E764
:1027F0001D064CBF1288126851E713464A461878E6
:10280000DDE90931D847B146DCE60B9C073424F0FA
:1028100007042246656852F8084B0B9254EA0502F9
:1028200040F02C8123F01003002800F027810026BF
:102830000DF1480E06930C9B4A46CDE90473002324
:10284000CDE900E6CDF80CC002935846DDE9093128
:10285000FEF724FF8146C8E413F0200F14BF412087
:1028600061200DF1480E7646A0F10A0803E0202908
:102870003FF420AF2246B2FBFCF40CFB1425E8B277
:10288000092D00F130058ABF4044E8B2C0B262456C
:1028900006F8010B01F10101E9D20BE723F0100268
:1028A00069280D9240F06F8113F4806204D04FF4D8
:1028B000806223F011030D930D9B13F4007640D139
:1028C0000B9B03F104080D9B13F4807040F098807B
:1028D000590640F1C6800B9B19780C46CB0F002996
:1028E00000F0B98022460DF1480E74461646DFF816
:1028F000A0C201E020280FD03546ACFB0621C90854
:1029000001EB8102A6EB42023032092D0E4600F1A6
:10291000010004F8012BEDD80D9ACDE901030692D0
:102920000C9ACDE904720A234A4603935846DDE91E
:102930000931CDF800E0FEF7B1FECDF82C808146DC
:1029400053E40B9C073424F00704214608466368CF
:1029500050F8081BDC0F0B9051EA030000F0C38015
:102960000A46191E48DB13460DF1480EF4460026B0
:10297000CDE90E94DFF8188201E0202E2DD05A18F0
:1029800042F10002A8FB025929F0030505EB990565
:10299000521B1C469B1A61F1000508464FF0CC31D2
:1029A00001FB03F108FB0511A3FB085319440523A0
:1029B00005F00109A9FB03399B180A2C03F1300328
:1029C0004FEA550570F100000CF8013B06F10106D5
:1029D00045EAC1734FEA5101CFD2DDE90E940D9B58
:1029E0004A4606930C9BCDE90164CDE904730A23A2
:1029F000CDF800E0039328E7524261EB4101B2E7D2
:102A00000B9B1968CB0F002900F0AB8081EAE172C3
:102A1000A2EBE1720DF1480E7046DFF874C101E0DF
:102A2000202E10D01546ACFB0241C90801EB8104F1
:102A3000A2EB440404F13002092D00F8012B06F149
:102A400001060A46ECD80D9ACDE9016306920C9A6C
:102A5000CDE9047267E7002A3FF445AF0DF1480E57
:102A60005AE713F0800F0B9B00F08180B3F9001040
:102A700081EAE174A4EBE174A4B22FE713F0200F14
:102A800014BF412261220DF1480E0A3ACDE90D979B
:102A9000CDF844B000267746F3469146CDE90F3C89
:102AA00003E0202E17D004460D4629464246002357
:102AB00020461BF0F1F8D2B2092A02F1300388BF98
:102AC00002EB09034445DBB275F1000507F8013B51
:102AD00006F10106E5D2DE46DDE90D97DDE90F3CA2
:102AE000DDF844B0A6E6002A47D1134611463BE77D
:102AF0000B990968A1B923F0100388B10DF1480EB4
:102B000006930C9BCDF80CC0CDE904730192D8E577
:102B100013F480627FF4CBAE23F010030D93CBE669
:102B200013F0200F14BF412061200DF1480E7646AE
:102B3000A0F10A0802E0202AE2D02146B1FBFCF411
:102B40000CFB1415E8B2092D00F130058ABF404492
:102B5000E8B2C0B2614506F8010B02F10102EAD207
:102B6000CEE7002A3FF456AF0DF1480E6BE7196827
:102B700081EAE174A4EBE174B0E600260DF1480EA1
:102B80002DE701362BE64FF00A081346C44671E5DF
:102B9000CDCCCCCC70B594461E4605460C4684B0D0
:102BA0004FF0FF32634602A900960348CDE9025474
:102BB000FFF7FCFA04B070BD491900100FB410B54E
:102BC0000E4B84B006A91C6851F8043B03915CB11C
:102BD00000914FF0FF3202A90948A047012004B03C
:102BE000BDE8104004B07047184600F03DFA20469A
:102BF00004B0BDE8104004B0704700BFCC6D0220A7
:102C00004119001010B5094B84B01C684CB1034643
:102C100000914FF0FF3203A90548A047012004B0FE
:102C200010BD00F021FA204604B010BDCC6D02208A
:102C30004119001000BEFDE7074A0346106838B18D
:102C4000064903448B428CBF4FF0FF30136070473E
:102C5000034908461160F3E7306D022000000820A8
:102C6000208E022090B110B50446FEF7F3F8084A12
:102C7000D2E90032C01A61EB02010023054A1BF0C1
:102C800013F8C4E90001A260002010BD00207047C5
:102C90007011002040420F0003460846114623B938
:102CA000034BD3E9002300F05FB94FF0FF307047CA
:102CB00068E90110431E012B09D810B514460846D7
:102CC00001230022214600F0D7F8204610BD4FF026
:102CD000FF3070470EB44FF0FF3003B0704700BFB5
:102CE0004FF0FF30704700BF4FF0FF30704700BF1C
:102CF0004FF0FF30704700BF02288CBF002001203A
:102D0000704700BF08B5FFF795FF00BF9C4614460B
:102D100000B50B460246614683B044B1054D0648F6
:102D200001940095FFF74AFF0120FFF783FF034D51
:102D30002C46F4E7ECDE0110FCDE0110F8DE011099
:102D400038B5064C064DFEF7C5F9AC4204D254F82E
:102D5000043B9847AC42FAD338BD00BF10DD0110E8
:102D600018DD01100368084611461847437D2DE918
:102D7000F04781460F461646002B43D0002A3BDD24
:102D8000037D00204D1E014615F8012FDFF88480D9
:102D90000A2A01F101040ED0A6421CD02B7821464C
:102DA000A3F10D03B3FA83F315F8012F5B090A2A87
:102DB00001F10104F0D1002BEED18142A1EB000121
:102DC00038441BDC02214046D9F800309847A6421F
:102DD00008D02046E2E7864204DD311AD9F80030F7
:102DE00038449847374417F8013CA3F10D03B3FA70
:102DF00083F35B0989F81430BDE8F087D9F8003017
:102E00009847DFE73846D9F800301146BDE8F0476B
:102E1000184700BF18EA01100B682DE9F041802B1C
:102E20000D46064605D05A1C2B442A601E71BDE88B
:102E3000F0810F4B1C68A4B10E4F01F1040801E0B2
:102E4000246974B12368002BFAD03B680BB1A3420C
:102E5000F6D1204641462A68FFF788FF2469002CF6
:102E6000F0D1002301222B442A601E71BDE8F081BD
:102E7000206B0220246B02202DE9F04782B00D4622
:102E8000924699460746FDF7E5FF4FF0FF366FF093
:102E900000442F4A821841F10003964274EB03016B
:102EA0003CBF324623462B481AF00AFF6B1C804673
:102EB00003D1384617F086F90546274B274E1C6884
:102EC000274BB9F1000F18BF1E46B4B1BAF1000F7D
:102ED0001AD1DFF8909001E0246974B12368002BC7
:102EE000FAD0D9F800300BB19C42F5D120462A46E1
:102EF0003946B0472469002CF0D1B8F1000F1FD13A
:102F0000284602B0BDE8F0874FF00A0ADFF8549077
:102F100002E02469002CF0D02368002BF9D0D9F806
:102F200000300BB1A342F4D12A4639462046B047BF
:102F3000012220460DF107018DF807A0B047E8E710
:102F400004481AF0ADFE284602B0BDE8F08700BF85
:102F500040420F00400F0020206B0220652D001022
:102F60006D2D0010246B02202DE9F04F9846074686
:102F70000E4683B0DFF860B0DFF86090DFF860A045
:102F80000192DBF8004014B911E024697CB1D9F852
:102F900000500DB1A542F8D1A268002AF5D0314603
:102FA000384690470028F0DD03B0BDE8F08FDAF82E
:102FB000242090450BD8DAF82810019B994204D3BD
:102FC0006FF0010003B0BDE8F08F9045F8D101200B
:102FD0000021FDF749FFD4E7206B0220246B02207B
:102FE00000000B40F0B583B006468DF80700FDF7F2
:102FF00031FF4FF0FF356FF00044174A821841F15E
:103000000003954274EB03013CBF23462A46134854
:103010001AF056FE124B07461C689CB1114D01E098
:1030200024697CB12368002BFAD02B680BB19C4239
:10303000F6D1204601220DF10701FFF797FE246922
:10304000002CEFD117B9304603B0F0BD03481AF099
:1030500027FE304603B0F0BD40420F00400F002075
:10306000206B0220246B022038B5044617F0AAF822
:10307000012305461A4620462946FFF7FDFE084B68
:103080001C682CB163682BB198472469002CF9D1D6
:10309000284638BD2469002CF4D1284638BD00BF2D
:1030A000206B02202DE9F041A2B004460D46FDF749
:1030B000D1FE4FF0FF376FF00046274A821841F1EA
:1030C0000003974276EB03013CBF3A463346234860
:1030D0001AF0F6FD00262B4607462246204801A995
:1030E0000196FFF757FD019B06467BB91D4B1C68F7
:1030F0002CB1636843B198472469002CF9D10FBB08
:10310000304622B0BDE8F0812469F1E7DFF8548051
:10311000D8F80050EDB1144C01E02D6975B12B6861
:10312000002BFAD023680BB1AB42F6D12846019AA6
:1031300002A9FFF71BFE2D69002DF0D1D8F8004041
:103140000195D5E705481AF0ABFD304622B0BDE841
:10315000F0810195D3E700BF40420F00400F0020EF
:10316000192E0010206B0220246B02200FB400B532
:1031700083B004A951F8040B0191FFF793FF03B04A
:103180005DF804EB04B070472DE9F04F4FF00009F3
:103190004FF0010E85B0174602689DF83840C2F81E
:1031A0006C905160191E03940546DDE90F46C2F884
:1031B0006CE0029150DD039B01F1FF3A83EA0E03BC
:1031C0005B020193002C00F09680C846CB4601219B
:1031D0003046A047B9F1000F54D12A684FF00009DA
:1031E00029798902019817F8013BCA4518BF0020C8
:1031F0000B4303431361002C47D04FF0000B03E057
:103200002A68536BD80615D400213046A0474BEAF4
:10321000000B5FFA8BFB0028F2D0834600284BD1CD
:10322000029B09F101094B4516D00021002CCED19B
:103230002A68D7E7D2F88080B8F1000F50D1BBF1EF
:10324000000F13D1CA454FD04FF00008029B09F17F
:1032500001094B45C346E8D14846039B2B7105B095
:10326000BDE8F08F2A68536B9B051FD400213046C0
:10327000A0474BEA000B5FFA8BFB0028F2D06FF0FF
:103280000109E9E700212A68ACE7BBF1000FC7D1CB
:10329000536BDB06FCD5D2F88080B8F1000FD1D09B
:1032A0004FF0010B536D536B9905FCD55846136EC7
:1032B0004FF0000B0028B3D0BBF1000FDFD1B8F105
:1032C000000F1ED018F0010F1BD118F0080F08BF17
:1032D0004FF0FF394846039B2B7105B0BDE8F08FD6
:1032E0004FF0010B536DC1E7039B002BACD12CB900
:1032F000A346A046D7E7A346A0466FE798469B465D
:10330000B4E74FF0FF39A7E72DE9F84F4FF0010C74
:10331000DDE90B46002791460268B3F10008D76645
:10332000054651609DF828B0C2F86CC021DD08F157
:10333000FF3A14B101213046A0472B685A6F102A7A
:10334000FCD0002F33D00022BA4504BF8BF001011E
:1033500042EA412242F480721A618CB1D3F8802093
:10336000596B11F0400113D0002130465B6DA0472E
:10337000C743384685F804B0BDE8F88F9A6F7AB92C
:10338000D3F880205A6B5206F8D500205B6DEFE72A
:103390003046A0470028EBD12B689A6F002ADDD079
:1033A0001B690137B84509F8013BC2D1E1E72A7929
:1033B0009202C9E7F8B5064605200C46FDF7EEFD7A
:1033C00000EB540CBCFBF4FC214B0CEB4C02A3FBBC
:1033D000025320499F088C42ACEB930530D801F191
:1033E000D64101F5A10101F62C0100EB4003A1FB40
:1033F00003139B0D013300244F2A98BF012231682B
:10340000B0FBFCF0CC660C6801F5805684F0040437
:1034100004F00604346088BF0D4CCD6184BFA4FB6A
:10342000024292090F62C1F8A0200A46012452F814
:103430007C5F6B409BB202F580521360CC66F8BD96
:10344000054900EB4003A1FB0313DB0D0133D2E779
:10345000CDCCCCCC3F420F00893BE6550E4A30B470
:10346000904214BF202210220C4D0D4B0D4C2A60AF
:103470001A60A36832EA0303FBD140F26515032406
:1034800002680371D3661560D3639363C2F8884002
:1034900030BCFFF78FBF00BFB40700200020024000
:1034A00000300240000002402DE9F04389B00DF1E8
:1034B0001008044616461F46DDE9122340460D4615
:1034C0009DF84090FDF7A4FC3B46CDE9010832464B
:1034D00029462046CDF80090FFF756FE09B0BDE81A
:1034E000F08300BF2DE9F04389B00DF110080446C8
:1034F00016461F46DDE9122340460D469DF84090D2
:10350000FDF786FC3B46CDE90108324629462046B8
:10351000CDF80090FFF7F8FE09B0BDE8F08300BFDA
:103520002DE9F84F374B0746984214BF4FF400235C
:103530004FF480230E46344D344C354A2B602360C3
:10354000946833EA0404FBD10620FDF727FD3946D1
:10355000022351F8042F4FEA462E4FEAD65B7045FE
:1035600002EA030801F5405974EB0B02C9F8003078
:1035700011D34FEA965CB20201E05246AC460233E8
:10358000B3F5807F07D01EEB020A4BEB0C0590428F
:1035900074EB0C0CF1D24FF48072C3EB032494460D
:1035A000013A2DD0B0FBF4F5AE42A4EB0304F6D201
:1035B0000CFB03FC120202243B613B4603253E68E0
:1035C00001F500517240B0FBFCF002F47F4207F5B8
:1035D000805CCCF80020C1F800807E68C9F800400B
:1035E00053F8242B264082F0070202F0CF0203F5A5
:1035F0000053CCF800200E601D600C60BDE8F88F11
:103600009C46D8E7000008400020024000300240FD
:10361000000002402DE9F047054606200C46FDF764
:10362000BDFC294602234FF0000951F8046F4FEA10
:10363000442E01F540524FEAD45A7045136079EB9D
:103640000A0206EA030611D34FEA945CA20201E0E3
:103650004246BC460233B3F5807F07D01EEB02081A
:103660004AEB0C07904279EB0C0CF1D24FF48072CC
:10367000C3EB032C1746013A17D0B0FBFCFEA6455E
:10368000ACEB030CF6D903FB07F712022B612B6896
:1036900001F50051534003F47F4305F580552B603D
:1036A000B0FBF7F00E60BDE8F0871F46EEE700BF05
:1036B00082B2B2F5406F08D2044AC9B212F800C013
:1036C0008C4502D011540EF0E1BC7047F41100207B
:1036D0001C4B1B68184483B2B3F5406F1BD21A4BC6
:1036E000C9B21A5C8A4216D0184A195413683BB3FF
:1036F000B0F5C06F10DBA0F5C063C0F301129B11E1
:1037000003EBC20300F00F0003EB8303403000EB38
:1037100003100EF0BBBC704703460028B8BF00F191
:103720003F0342424FEAA31302F03F0200F03F0082
:1037300003EB830358BF504200EB03100EF0A6BC0E
:103740000EF0A4BCBC070020F4110020DC7E022097
:10375000B0F5705F08B516DA244AD2F8043C83420B
:103760000EDC43F2E07320F0030199421AD0A0F579
:103770005F532C3B032B18D8DFE803F0110E0B0826
:103780001B4B185C08BD1B4BC05C08BD0FF01CFB3D
:1037900008BD0FF01FFB08BD0FF01AFB08BD0FF0AE
:1037A00015FB08BD03F09EFE08BDB0F5645F06DBA7
:1037B000D2F8083C73B9BDE808400FF015B8B0F571
:1037C000605FF8DA43F2E87399420DD1BDE8084032
:1037D0000EF040BD084B5B68984205DA074BD2F803
:1037E0000C2C0344985C08BDFF2008BDF411002098
:1037F000481E0020F4D5FF1FBC0700204C660020A7
:10380000B0F5705F1EDB294B9B686BB1A0F5705063
:1038100083B2B3F5406F14D2254BC9B21A5C8A4209
:103820000FD019540EF032BCA0F5705011F0A00F5B
:1038300083B214BF01F0BF0141F04001B3F5406F06
:10384000EAD37047A0F55F532C3B032B0FD8DFE87A
:1038500003F00B080502C8B20FF0BEBAC8B20FF0F1
:10386000C1BAC8B20FF0BCBAC8B20FF0B7BA43F2CF
:10387000E07220F0030393420DD0B0F5645F0DDBDE
:103880000B4AD2F8083C002BDBD00A4BD2F80C2CA8
:10389000034499547047C8B20FF0A6BA43F2E872D5
:1038A0009342CED108460EF0D3BC00BFBC07002027
:1038B000F41100204C660020024BA0F570501860F7
:1038C000704700BFBC070020054B1B68184483B23B
:1038D000B3F5406F3ABF034B185CFF20704700BF41
:1038E000BC070020F4110020074B1B6803449AB268
:1038F000B2F5406F06D2054AD05C884202D0012062
:10390000D154704700207047BC070020F4110020FC
:10391000054B1B68184483B2B3F5406F3ABF034BA5
:10392000C0180020704700BFBC070020F411002021
:1039300010B50446072805D8DFE800F00C0415226E
:1039400004042D380146204802F0AEFC1F4B83F8DA
:103950001C4C10BD00221D4B83F81C4CC3F80C2CD2
:10396000C3F8102C10BD0021184BD3F8182C83F885
:103970001C4CA2F50042C3F8102CC3F80C1C10BD5F
:103980000022124BD3F8181C83F81C4CC3F8101CEF
:10399000C3F80C2C10BD00220C4BD3F8181C83F874
:1039A0001C4CC3F80C1CC3F8102C10BD0021074B95
:1039B000D3F8182C83F81C4C02F50042C3F80C2CE9
:1039C000C3F8101C10BD00BF2CDF0110F411002043
:1039D00028B3012814D0174A401002EB8000C0F829
:1039E000081CD2F8143CD2F8100CD2F80C1C1B04A2
:1039F00043EA00230B4303F58033C2F8183C7047B9
:103A00000C4A0D48D2F8183C83420ED80B4810B42B
:103A10005C1CC154C2F8184C5DF8044B7047054B50
:103A2000D3F8183CB3F5003F00D37047034AD15494
:103A3000704700BFF4110020FEFF01004C6600201B
:103A400080B1012806D00F4B401003EB800393F8A0
:103A5000080C70470B4A0C49D2F8183C8B420AD923
:103A6000FF207047074BD3F8183CB3F5003FF7D25F
:103A7000064AD05C70470548591CC05CC2F8181C47
:103A8000704700BFF4110020FEFF01004C660020CB
:103A90000B4B1A68824211D070B50A4D18606C1E2B
:103AA00005F2FF76C5F1010594F85110281904F8C4
:103AB000011F0EF0EBFAB442F6D170BD704700BFA3
:103AC000BC070020F4110020024608B5064B102068
:103AD000C3F8202C02F06CFC03F098FDBDE8084010
:103AE00000200EF093BA00BFF4110020030413F479
:103AF000E02303D0000300F400400343024AC2F86D
:103B0000183CC2F80C3C7047F4110020072811D073
:103B100001210C4B00F0070CD3F8202C01FA0CF11A
:103B200000074CBF0A438A431821C3F8202CC3F86E
:103B3000241C704710210022024BC3F8241CC3F838
:103B4000202C7047F411002038B5194DD5F8283CC9
:103B5000834212D043400446980615D4D9060DD4AA
:103B6000A20703D4D5F8283C9B0716D4A30203F47C
:103B70004033C5F8284CC5F8183C38BD600100F446
:103B800000700FF00DF9EBE7200100F400700FF06A
:103B9000FDF8D5F8283C6340E0E70EF0CFFAA30229
:103BA00003F44033C5F8284CC5F8183CE5E700BFDE
:103BB000F411002038B51A4DD5F8283C98420ED0A3
:103BC00043400446980621D4D90619D4A20710D53B
:103BD000A30203F44033C5F8284CC5F8183C114B38
:103BE000114A20201A6002F0E3FBBDE8384003F0E0
:103BF0000DBDD5F8283C9B07EAD50EF09FFAE7E704
:103C0000600100F400700FF0CBF8DFE7200100F452
:103C100000700FF0BBF8D5F8283C6340D4E700BF34
:103C2000F4110020BC07002000C4FFFF094A92F8ED
:103C30001C3C83420CD0830403F4402310F0800F1B
:103C4000C2F80C3C08BF002382F81C0CC2F8103CE0
:103C5000704700BFF411002038B5134DD5F8203C53
:103C6000834209D043409907044606D45A070DD42D
:103C70001B0614D4C5F8204C38BD00F002000FF02C
:103C80007BF8D5F8203C63405A07F1D504F00400D6
:103C900003F08EFED5F8203C63401B06EAD504F005
:103CA00080000FF047F8E5E7F411002038B5224C0A
:103CB000000494F81C5C00F4F810C4F8180C072DEC
:103CC00005D8DFE805F00B04141E0404262E29464F
:103CD0001A4802F0E9FA84F81C5C38BD0023184A3F
:103CE00084F81C5CC4F8103C42F8043C38BD002346
:103CF000A0F5004084F81C5CC4F8100CC4F80C3C1F
:103D000038BD002384F81C5CC4F8100CC4F80C3CCB
:103D100038BD002384F81C5CC4F80C0CC4F8103CBB
:103D200038BD002300F5004084F81C5CC4F80C0C7E
:103D3000C4F8103C38BD00BFF41100202CDF011086
:103D4000041E0020024BB3F81A0C00F01F0070474D
:103D5000F411002038B5224C00F01E00023094F817
:103D60001C5CC003C4F8180C072D05D8DFE805F06B
:103D70000B04141E0404262E29461A4802F094FA55
:103D800084F81C5C38BD0023174A84F81C5CC4F816
:103D9000103C42F8043C38BD0023A0F5004084F8F4
:103DA0001C5CC4F8100CC4F80C3C38BD002384F82B
:103DB0001C5CC4F8100CC4F80C3C38BD002384F81B
:103DC0001C5CC4F80C0CC4F8103C38BD002300F592
:103DD000004084F81C5CC4F80C0CC4F8103C38BDDE
:103DE000F41100202CDF0110041E002038B5194DFD
:103DF000D5F8282C82422CD0D5F8201C430204464A
:103E000003F400438807C5F8103C10D4E3011249BD
:103E100003F48063A3F570530B60210707D50F4BA4
:103E20001B6823B901200EF06BF9D5F8282C6240ED
:103E300053070CD54FF0000284F00403C3F3800352
:103E4000074963F3070263F30F22A1F81B20C5F8AB
:103E5000284C38BDF4110020BC070020DC7E022075
:103E6000780F002000280CBF10211921054BC20239
:103E700002F40042C3F8102CC3F8200CC3F8241C31
:103E8000704700BFF411002000B971B121F0C003E8
:103E900003EB8013084A01F0C001043309029B03BD
:103EA000C2F82C3CC2F8301C70470B46024AC2F8DC
:103EB0002C3CC2F8301C7047F411002038B5134D6B
:103EC0000446D5F8203C434059070AD543070ED491
:103ED0004FF470520E4B082004F040011A600EF0AF
:103EE00003F91723C5F8204CC5F8243C38BD094B0D
:103EF0001B68042B07D010F0020F0CBF4FF4704268
:103F00004FF43042E6E74FF46452E3E7F411002047
:103F1000BC070020D807002000F007031033162B41
:103F2000A8BF1023134A00F00101C2F8243C10F08E
:103F3000080382F81C0C0ED0C00200F4F020A1B1DE
:103F400000F580300346C2F8180C0021C2F80C3C82
:103F5000C2F8101C7047C2F8183C0029F5D10023A4
:103F6000C2F8101CC2F80C3C704700F50041C2F8C2
:103F7000181CF4E7F411002010F0200F0CBF0123EF
:103F80000023054AC00300F47820DB03C2F8340C98
:103F9000C2F8383C704700BFF4110020054AD2F83F
:103FA000383CD2F8340CB3FA83F3C0135B0940EA0F
:103FB00043107047F411002070B5354DD5F8203C02
:103FC00083421BD0D5F8242C0446103A0E2A13D86D
:103FD000DFE802F0081212120812121A121212125C
:103FE0000F23360010F0100F0CBF10221422C5F85A
:103FF000242C6340DB0702D4C5F8204C70BD04F0CC
:10400000010003F0D5FCF7E7441004F0080403F0C6
:1040100007031C43C5F8204C70BD43401E061DD449
:1040200098072CD4D907E7D514F0010612D0194B04
:104030001B68002BE0D1314608200EF055F8DBE775
:1040400043409A0713D45B07D6D504F0040003F06D
:10405000AFFCD1E730460EF053F8E8E7022004F059
:1040600080010EF041F8D5F8203C6340D8E700F01D
:1040700002000EF05DFED5F8203C6340E3E704F05B
:1040800002000EF055FED5F8203C6340CAE700BFA1
:10409000F4110020DC7E0220014BC3F8200C704795
:1040A000F4110020014BD3F8200C7047F4110020CC
:1040B000014BD3F8280C7047F411002000F03003B6
:1040C00000F00C0203EB430302EB42029B030549A1
:1040D00003EB821303F58033C1F8183C81F81C0C04
:1040E000704700BFF411002038B50A4DD5F8203CC8
:1040F000834208D043401B06044605D43423C5F848
:10410000204CC5F8243C38BD022004F080010DF09D
:10411000EBFFF3E7F4110020084B890303EB800267
:104120004328C2F8081B05D1D3F8142CC3F80C2C73
:10413000C3F8102C1622C3F8242C7047F411002069
:10414000034B03EB8003D3F8080B8013704700BFC9
:10415000F411002070B54FF4803300254FF4004275
:104160000646724C7249C4F8183C0D60C4F8382CED
:10417000C4F8105CC4F8145CC4F8305CC4F82C5C5F
:1041800084F81C5CC4F8345CC4F8285CC4F8205C77
:10419000C4F80C5C0EF0C0FD30460EF0BFFD30469A
:1041A0000EF0BEFD0EF0BEFD0EF00EFB03F034FD72
:1041B000284603F0DFF8002E40F083805D4DEB6869
:1041C000022B25DD4FF440622021584811F0CEF833
:1041D00003F096FF002002F0EBF80DF03DFF012008
:1041E0000DF014FF03F012FA534B1B68002B40F044
:1041F00083800DF0B1FD00200DF082FFEB68052BF0
:104200001AD0032B1BDC022B27DC012B3DD070BD09
:104210004A4B1E6816F02806D4D1012003F008F896
:104220004FF4FA623146464803F0B0FC00200DF02E
:1042300067FFEB68052BE4D10123C4F8203C002183
:10424000842003F065FFD4F83C3C002B5FD00022B3
:10425000EB68C4F8182C022BD7DD0024394B20461C
:1042600083F85B400EF060FD204603F067F92046BE
:1042700003F07AF9EB68032BC7D10EF057FD204607
:1042800002F096F8EB68012BC1D100200EF050FD32
:1042900003F022F900210A200DF026FF2A4B1B68AB
:1042A000062B36D0072B39D0052BB0D150200EF07D
:1042B00041FD082002F07CF8BDE8704000200DF0C0
:1042C000A5BE4FF0FF11214B03F5003243F8041B4C
:1042D0009342FBD1174DFF214FF490421C4811F03F
:1042E00045F8EB681B4A1B012A60C4F8243C0EF019
:1042F0001BFC02F005FB65E74FF0FF3108460DF0AF
:1043000073FF4FF0FF3108460DF070FF71E7EB6867
:1043100079E74020BDE8704002F04AB8802002F002
:1043200047F8BDE8704000200DF070BEF411002089
:10433000E87E0220BC070020F88D0220546602208F
:10434000317200104CA60020D80700204C660020D7
:10435000481E002000C4FFFF014B93F81C0C70475F
:10436000F4110020014BD3F8240C7047F411002005
:10437000034A044BD26800EB0210C3F8240C7047C8
:10438000BC070020F4110020B0F5904FBCBF014BDA
:1043900019547047481E002008B5164B5A688242CF
:1043A00013DDB0F5804F12DAB0F5705F15DAB0F5B5
:1043B000605F17DA43F2E87220F00101914215D0F4
:1043C0000D4AD2F8042C824204DCFF2008BD0B4ABF
:1043D000105C08BD0A4A105C08BDA0F570500EF0D4
:1043E000E5FC08BDBDE808400EF0FEB9BDE8084098
:1043F0000DF030BFBC070020F41100204C660020F7
:10440000481E0020B0F5003FBABF024B185CFF20E9
:10441000704700BF4C660020B0F5003FBCBF014BA9
:10442000195470474C660020994B0246D3F8301C53
:1044300080B231B1814204DC01F57F513F318142CC
:104440006CDAD3F8401C10B549B1D3F8341C31B143
:10445000D3F8384C80EA040C1CF4004F66D0D3F833
:10446000241CA1F1100CBCF1430F55D8DFE81CF05F
:10447000EF01D900B90082008600860056020D02C5
:1044800033022202BC018D017D0155013701540028
:10449000540054005400540054005400540054007C
:1044A000540054005400540054005400540054006C
:1044B00018019D009D009D00E4005400540054002C
:1044C000540054005400540054005400540054004C
:1044D000F4014400AD00790054005400540054002D
:1044E000540054005400540054005400540054002C
:1044F000A200A200AD007900A0F56052B2F5006FF5
:104500002FD2B0F5705FC0F29E81624A12680244F9
:1045100091B2B1F5406F2BD3FF2010BD5E49D3F8A7
:104520002C3CC2F30D021144C85C70475A4BC2F3D5
:104530000E020B44985C10BDB0F5404F11DB8907AB
:1045400040F1BB82B0F57C4F80F2A482B0F5794F88
:1045500080F2C282B0F5784F80F27581B0F5774F66
:1045600064DAC1134C4A03EB8103D3F80C3C0244D8
:10457000D05C10BD4FF2DF71884257DC4549496875
:104580008842C9DAD3F8081C61B193F81C1C4FEAC1
:10459000E03C03EB8C0C01F00703062BDCF80C1C51
:1045A00038D008443C4B185C10BD3B4B3B4A02F0F2
:1045B000ABFD10BDD3F8202C002A9DD0D3F8042CDD
:1045C000824299DD354B185C10BDB0F5744FC8DBE5
:1045D000B0F5784FC0F237810344A3F578431878DB
:1045E00010BDA0F55F512039B1F5026F20D32949E4
:1045F0004968884290DAD3F8081C0029D2D093F891
:104600001C1CC41303EB840401F00703062BD4F82D
:104610000C1CC6D1B0F5404FA8BFC2F30D00084432
:10462000C0E7A0F57741E0391F29E0D8C2F30D00BB
:10463000BDE81040FFF78CB8D3F8201C4C0603D51A
:10464000B0F5404FC0F2CA814C0702D4B0F5784FA4
:10465000C2DA12F4404FA5D1CC0606D4CC0740F103
:104660000182B0F5605FC0F24D820C0703D5B0F552
:10467000705F80F2B6818C0704D4A0F56053FF2BE5
:1046800040F2E180CB078DD412F4704F8AD199E7C4
:10469000F4110020BC0700204C660020481E0020BA
:1046A000AC4949688842BFF637AF12F4404F7FF4F7
:1046B00079AFB0F5705F80F2BC81B0F5605F80F2D9
:1046C000C2804FF6FE7143F2E8741140A14200F03F
:1046D000D881D3F8043C9842BFF61EAF72E7D3F8F6
:1046E000201C0C0640F12C81B0F5404F80F228814F
:1046F000CC0700F1C08112F4404F40F0D6810B0787
:1047000000F16881B0F5505F92DA4B073FF54AAF90
:10471000B0F5405FBFF646AF54E7D3F8201C090759
:1047200003D512F4404F00F05581D3F8281CCC0774
:104730003FF502AF01F0100C02F440425CEA020CBB
:104740007FF40FAFB0F5705FBFF6DFAEA0F55F523C
:10475000203AB2F5907FFFF46BAF8C073FF501AFC5
:10476000B0F5405FBFF6FDAE2CE7D3F8201C8C06F9
:104770003FF518AFB0F5405F80F216818C0700F16D
:104780006A814B073FF50EAF1CE712F4404FD3F898
:10479000201C40F0E380CC0700F1F480CC0640F10F
:1047A0003F81B0F5605F80F29A814FF6FC7443F26E
:1047B000E07C1440644500F0A881A0F55F52283ADF
:1047C000072A7FF635AF4A0740F1DE80D3F8282C60
:1047D000D40740F1D180604AD3F80C4CD3F8181CB0
:1047E00013182344585C10BDB0F5884FBFF6B9AE1E
:1047F000D3F8201C0F293FF4B4AECC0704D4D3F86F
:10480000044C84423FF7DEAE8C0705D4A0F570540B
:10481000B4F5806FC0F0E5804C0703D412F4404F2C
:1048200040F0DF800A073FF59CAEB0F5705FBFF641
:1048300098AEA0F55F52203A0F2A7FF6F9AEB0F598
:10484000605FFFF68EAEBDE810400DF0CDBF12F4F4
:10485000404F7FF4CCAEEBE612F4404F7FF481AED4
:10486000B0F5705FBFF651AEB0F5605FEBDA4FF6B2
:10487000FE7143F2E8741140A14200F00281D3F8C6
:10488000043C83427FF748AE9CE6D3F8201CCC075B
:1048900008D5304C2468844204DC04F6FF7C84454F
:1048A00080F2D48001F0080102F4404211437FF409
:1048B00079AEBDE612F4404F7FF453AED3F8203CFE
:1048C000590678D543F2DF7290427FF76BAE9A06B5
:1048D0003FF568AEACE612F4404F7FF463AED3F818
:1048E000203CDA0759D5B0F5405FFFF65BAE5C07B8
:1048F0006AD5B0F5585FFFF655AEDA0676D5B0F555
:10490000605FFFF64FAE990640F19880B0F5705F9A
:10491000FFF648AE5B063FF545AE89E612F4404F20
:104920003FF486AE12047FF53DAEA0F5004292132F
:1049300003EB82030849D3F80C3C0144C85C10BD6A
:1049400012F4404F7FF42EAE0C0743D4CA073FF554
:1049500029AED7E6BC0700204C6600200C0702D524
:10496000110400F19280D3F8282CD2077FF533AFE1
:10497000B0F5604FFFF62FAF694AD3F8103C024400
:10498000D05C10BD490703D4B0F5405FFFF61AAE06
:10499000D3F8282CD207EBD4EEE7590714D5B0F59D
:1049A000405FFFF645AEA4E70C0725D412F4404F54
:1049B0007FF4F8AD3CE69B067FF53AAE43F2DF7339
:1049C00098427FF735AEEDE5DC060FD5B0F5585FC0
:1049D00095DA2DE6BDE810400EF0EEB9514BC05C03
:1049E00010BD0344A3F57053187810BD9A0625D561
:1049F000B0F5605F8ADA1BE6B0F5784F76DAB0F58D
:104A0000744FBFF620AFA0F56F43E03B0F2B40F291
:104A10008180B0F56C4FFFF6C5AD434BC05C10BD57
:104A2000B0F5705F69DAA0F56054FF2C7FF60BAF2C
:104A3000BBE6A0F570500EF0B9F910BD5C067FF52D
:104A4000F7ADB0F5705FBFF6ADADF1E5021BC2F397
:104A50000A02985C10BD3549C2F30A0343F440537F
:104A6000C85C10BD0C072ED5B0F5705FB9DA8C07A5
:104A70007FF503AE08E62A4AD3F8183C0244D05C1E
:104A800010BDBDE810400DF0E5BBA0F500400EF0F4
:104A900077F910BD2649C2F30D0209680A4491B2A4
:104AA000B1F5406FBFF438AD62E542F6FF731F49C0
:104AB000134043F48053C85C10BDA0F54040BDE8EE
:104AC0001040FEF745BE8B073FF5DEADA0F5605305
:104AD000FF2B3FF6D9ADB6E6164BC05C10BD144AAD
:104AE00012680244C2F30A02985C10BD104A1268B0
:104AF000821AC2F30A02985C10BD0D4A184413686A
:104B0000C05C10BD0C4BC05C10BD02F0EBFC0EF0A5
:104B100039F910BDA0F53840BDE81040FEF718BEC9
:104B20004C6600204C6601204862FF1F481E002092
:104B3000BC0700204CE60020482E0020B0F5804F36
:104B400038B50D4602DB0C4B195438BDB0F5705F1B
:104B5000FBDBA0F5705420460EF02AF90028F4D1B2
:104B6000064BE9B21A5D8A42EFD019552046BDE8DE
:104B700038400DF08BBA00BF4C660020F4110020C5
:104B800030B5994C83B0D4F8303C1FFA80FC33B177
:104B9000634504DC03F57F533F33634565DAD4F89E
:104BA000403C43B1D4F8343C2BB1D4F8382C8CEAD7
:104BB0000202150461D5D4F8242CA2F11003432B72
:104BC00051D8DFE813F0F40135019B01440049009E
:104BD0004900F90186016001FE00DA00B200A3007D
:104BE000B501D70150005000500050005000500057
:104BF0005000500050005000500050005000500035
:104C000050005000500017016E006E006E00410110
:104C10005000500050005000500050005000500014
:104C2000500050005000600076008B006300500080
:104C300050005000500050005000500050005000F4
:104C4000500050005000600076008B0063004FF26F
:104C5000DF739C4500F3F180D4F8083C002B46D16B
:104C6000624B03F80C1003B030BD604BD4F82C2C11
:104C7000C0F30D0003449954F5E75C4AC0F30E00FD
:104C80001A441154EFE710F4404F17D04FEAEC32BA
:104C900004EB8202554BD2F80C2C6344995403B0B8
:104CA00030BD6046514BC9B203B0BDE8304002F0A0
:104CB00057BAACF56053B3F5006FE7D2BCF5705F3F
:104CC000D1DB4B4B1868604483B2B3F5406FCAD256
:104CD000235CC9B28B42C6D02154A4E0BCF5744F0A
:104CE000D4DBBCF5784FBEDBACF57840F0E794F848
:104CF0001C2C4FEAEC3304EB8303D3F80C4C02F08A
:104D00000703062B00F06B81A444A9E7D4F8203CEC
:104D10009806A5D41A0700F1DB81ACF55F53203B60
:104D2000B3F5026F9CD2604689E010F4404FD4F88E
:104D3000203C40F0A181DD070BD4D80640F1118260
:104D4000BCF5605F80F27082ACF55F52203A0F2AAA
:104D5000E9D99A0602D5BCF5405F84DBD4F8283C3B
:104D6000DB0704D5C9B2BCF5604FC0F292811F4B7E
:104D7000D4F8102C6344995475E7BCF5904F85DA4C
:104D8000D4F8203C0F2B81D0980704D4ACF5705098
:104D9000B0F5806F9CD35A0709D4ACF58042B2F5C8
:104DA000806FC0F03882BCF5884F80F243821B07C9
:104DB0003FF56CAFACF55F53203B0F2B3FF666AF72
:104DC000B1E710F4404F7FF461AFD4F8203C1A06ED
:104DD00040F1B18143F2DF7294457FF741AF9D0608
:104DE0003FF53EAF9FE700BFF41100204C66002066
:104DF000BC07002010F4404F7FF432AFBCF5705F69
:104E0000FFF631AFACF57055284601910DF0D0FF9B
:104E100000287FF428AF0199635DC9B28B423FF44B
:104E200022AF2846615503B0BDE830400DF02EB9E1
:104E3000ACF57743E03B1F2B67D8C0F30D0003B000
:104E4000BDE83040FEF7DCBCD4F8203C5A0640F107
:104E5000E680BCF5404FC0F278811D0703D510F401
:104E6000404F00F0E7805807C9B23FF5F9AEBCF5F6
:104E7000784FFFF6F5AEACF57840235C8B423FF4FB
:104E8000F2AE2154CFE710F4404F7FF4E9AED4F8EE
:104E9000203C980740F15D81BCF5405FFFF6E0AE35
:104EA0001A0740F16A81BCF5585FFFF6D9AEDC06FF
:104EB00040F18281BCF5605FFFF6D2AE9A0640F108
:104EC0009B81BCF5705FFFF6CBAE5C063FF5C8AECC
:104ED00029E7D4F8203CDD0708D5B44A12686245BA
:104EE00004DC02F6FF7EE64580F27B8103F00803D6
:104EF00000F4404003437FF4B3AE14E7ACF55F53D6
:104F0000203BB3F5026FFFF40EAFD4F8083C002B42
:104F10003FF4A6AE94F81C2C4FEAEC3304EB830369
:104F200002F00704062CD3F80C3C63D09C4497E6AF
:104F3000D4F8203C1B0740F1848010F4404F00F06F
:104F4000F480D4F8283CDA077FF5A0AEBCF5774FA3
:104F5000FFF69CAE9D077FF570AFBCF57C4F80F2ED
:104F60005781BCF5794F80F24F81BCF5784FBFF681
:104F70008DAE62E7D4F8203C1A0645D5BCF5404F0B
:104F800042DADD0700F1018110F4404F7FF468AE92
:104F90001A0700F1CA80BCF5505FBFF6C4AE980690
:104FA0007FF55EAEBCF5405FBFF65AAE5BE610F42F
:104FB000404FAAD1604642E710F4404F3FF4B3AEF1
:104FC0000304C9B27FF54CAEACF500439B13784A9D
:104FD00004EB8303D3F80C3C6244D15443E6BCF5A4
:104FE000404FFFF691AE12077FF53DAEC0F30D0CBA
:104FF000A44435E6BCF5404F98DB14077FF533AE8B
:10500000C0F30D0C9C442BE610F4404F7FF428AE07
:105010001D0700F18A80DC073FF522AEBBE71A07C7
:105020007FF521AF10F4404F7FF41DAFBCF5705FEA
:10503000FFF619AE9D06ACF5705040F199802154F1
:1050400011E6D4F8283CDD0780D410F4404F7FF4FB
:105050001DAE1A0603D5BCF5405FFFF604AEDB06B5
:105060003FF514AEBCF5705FFFF6A4AE604603B02A
:10507000BDE83040FEF72CBB1D0713D5000400F13E
:105080008A80D4F8283C03F00103C9B2002B7FF4D6
:105090006AAE474BD4F80C0CD4F8182C6344034484
:1050A0009954E0E5D4F8283C9A077BD5050479D5D6
:1050B0000A463E4BACF5004C1B684FEAEC212344FA
:1050C00003F57053187803B0BDE830400DF052BEC0
:1050D000BCF5784F78DAACF56F43E03B0F2B3FF629
:1050E000BFADACF56F42EC3AACF53843032A00F2A1
:1050F000AD80DFE802F0140E0802C8B203B0BDE8CC
:1051000030400DF069BEC8B203B0BDE830400DF0CC
:1051100069BEC8B203B0BDE830400DF061BEC8B290
:1051200003B0BDE830400DF059BE604603B0BDE8A5
:1051300030400DF03FBE9C067FF5F5AD43F2DF73C6
:105140009C453FF78DAD604679E61A4B0CF803108D
:1051500089E51D0711D5BCF5405FBFF6A4AE6046DA
:105160006DE6BCF5705FFFF6EFAD104B186860445C
:1051700003B0BDE83040FEF79BBAD8061CD5BCF59D
:10518000585FBFF697AE604659E6094BD4F8182C25
:105190006344995467E5ACF5004003B0BDE8304086
:1051A0000DF0ECBD03F001036FE700BFBC0700206A
:1051B0004C6600204C6601209D061DD5BCF5605F45
:1051C000BFF67FAE60463AE62C4BC9B21B68ACEB2B
:1051D0000303C3F30A00235C8B423FF444AD215424
:1051E00021E6ACEB0202C2F30A00235CC9B28B4297
:1051F0003FF439AD215416E658067FF594ADBCF561
:10520000705FBFF62DAD8EE51D4B0CF803102AE53F
:10521000C0F30D002BE7ACF57050235CC9B28B4294
:105220003FF421AD2154FEE5144B1B686344C3F3E6
:105230000A009DE70A46ACF5884000110CF00F010A
:10524000C03003B0BDE830400DF076BD43F2E072EF
:1052500023F0030393420AD043F2E87293427FF4AF
:1052600002AD084603B0BDE830400CF0F1BFC8B253
:1052700003B0BDE830400DF0B7BD00BFBC07002053
:105280004CE6002038B50546FFF7CEF80446681C0A
:10529000FFF7CAF844EA002038BD00BF38B50C4615
:1052A0000546C9B2FFF76CFC2112681CBDE8384006
:1052B000FFF766BC0D4B5B6883420EDDB0F5804F97
:1052C0000DDAB0F5705F0DDA094BD3F8043C984263
:1052D00003DA11B9074B1844704700207047064B9A
:1052E00018447047054B1844704700BFBC070020A6
:1052F000F4110020481E00204C660020F4D5FF1F4A
:1053000070B5A34A0D46D2F8304C82B083B234B1A6
:105310009C4204DC04F57F543F349C4259DAD2F8B5
:10532000401C39B1D2F8341C21B1D2F8384C5C4061
:10533000260456D5D2F8241CA1F11004432C45D8DC
:10534000DFE814F09802D7006B02B2005500550058
:10535000F6002E01D2013002F701AE019B0144029A
:1053600079014400440044004400440044004400E7
:10537000440044004400440044004400440044000D
:10538000440044006101800080008000000144006E
:1053900044004400440044004400440044004400ED
:1053A000440044001D026D008700A000440044003A
:1053B00044004400440044004400440044004400CD
:1053C00044004400930093008700A000002002B036
:1053D00070BDD2F82C2C6F4BC0F30D001044184454
:1053E000F5E76C4BC0F30E0008441844EFE76A4938
:1053F00049688B4280F26082D2F8081C61B192F851
:105400001C1CDC1302EB840401F00702062AD4F80A
:105410000C1C00F053820B445E481844D7E7A3F5F8
:105420006051B1F5006F36D2B3F5705FC0F26082A3
:10543000594909680B4499B2B1F5406F80F0FD827B
:10544000D018C4E71846554A524B009501F0B6FEF5
:10545000BDE7B3F5744FC0F2BD82B3F5784FC0F22B
:10546000EE82A3F57843D018B1E7D2F8201C0029CA
:10547000D5D0D2F8041C9942D1DD002DCFD14748B8
:105480001844A4E7D91302EB8102D2F80C2C41484E
:105490001A4410449BE7D91302EB8102D2F80C2C7A
:1054A0003C481A44104492E74FF2DF718B429EDD74
:1054B000C0F30D00B0F5705F80F2C483D2F8043CF5
:1054C000984202DA002D00F0D984B0F5645FC0F292
:1054D0008184D2F8083C002B00F075842E4B5B6869
:1054E000984280F22585D2F80C2C2A4B104418449F
:1054F0006DE7A3F57741E0391F291C4640F2A182F0
:10550000254949688B4280F29583D2F8081C61B125
:1055100092F81C1CDC1302EB840401F00702062A3B
:10552000D4F80C4C00F0D0811C441A4820444EE7BB
:1055300010F4404F00F05782050400F173821548C3
:10554000184444E7D2F8201C4E0603D5B3F5404F6B
:10555000C0F220834C0703D4B3F5784F80F23C832C
:1055600010F4404F10D111F0100440F0F082CE073B
:1055700040F1AD83B3F5605FC0F29084090703D5B5
:10558000B3F5705F80F2AA83024818441FE700BF9A
:10559000F41100204C660020BC070020481E0020AB
:1055A000D2F8201CCC0708D5AF4C24689C4204DC00
:1055B00004F6FF7C9C4580F2968301F0080100F41C
:1055C0004040014340F09181B3F5705F80F2608309
:1055D000D2F8041C8B4202DA002D00F05B84B3F594
:1055E000645FC0F22484D2F8080C00283FF4EFAEC8
:1055F0009D4949688B4280F2B284D2F80C2C9B48BA
:105600001A441044E3E6984949688B4280F29D822F
:1056100010F4404040F01782B3F5705F80F2918241
:10562000D2F8042C9342BFF6D2AE002D7FF4CFAE59
:105630008F481844CBE6D2F8201C0C0640F14A8172
:10564000B3F5404F80F2468111F0010440F05C83D5
:1056500010F4404C40F0C1830E0700F14F84B3F5C5
:10566000505F80F2908311F0040103D1B3F5405FE5
:10567000C0F234847D481844A9E6D2F8201C11F009
:1056800020040AD1B3F5405F80F21E828E0700F13C
:10569000308311F0040100F0B1837448184496E699
:1056A00010F4404F40F06C81D2F8201CCC0700F180
:1056B000FA81C80640F1A382B3F5605F80F2C88327
:1056C0004E0703D4B3F5405FC0F24D83D2F8281CD7
:1056D000CD0740F1F381D2F80C1CD2F8180C194414
:1056E000624A0144881872E610F4404F40F0288165
:1056F000D2F8201C11F0010000F0BB81B3F5405F2F
:1057000014DB4E0740F11082B3F5585F0EDBCE0676
:1057100040F16782B3F5605F08DB880640F197824D
:10572000B3F5705F02DB4D0640F128834F48184403
:105730004DE6B3F5884F19DAD2F8201C0F2915D0A1
:1057400011F0010404D1D2F8046C9E4200F350839E
:105750008E0705D4A3F57054B4F5806FC0F06A834A
:105760004D0703D410F4404F40F08C83D91302EB63
:105770008102D2F80C2C3D481A44104427E610F45C
:10578000404040F01E81B3F5705F80F2C381D2F8D3
:10579000042C9A427FF71BAE002D7FF418AE3448DC
:1057A000184414E610F4404F40F0C180D2F8201C99
:1057B00011F0400000F04A8143F2DF70834202DDC5
:1057C000880640F1EA812948184400E6D2F8201CF6
:1057D0000E0703D510F4404100F07382D2F8281C64
:1057E000CC0700F1DC8000F4404001F010040443D9
:1057F0000AD1B3F5705F80F2378311F0020103D153
:10580000B3F5405FC0F28C83D91302EB8102D2F86A
:105810000C2C16481A441044D9E5A3F55F512039E1
:10582000B1F5026F1C4680F08E80B3F5705F80F298
:10583000A181D2F8041C8B4202DA002D00F0C6824E
:10584000B3F5645FC0F26A82D2F8080C00283FF416
:10585000BEAD054949688B4280F24D83D2F80C2CCD
:1058600002481A441044B2E5BC0700204C660020F0
:10587000481E002010F4404F3CD1B3F5705F80F219
:105880008581D2F8041C8B4202DA002D00F0BC8224
:10589000B3F5645FC0F23F82D2F8080C00283FF4F1
:1058A00096ADB64949688B4280F22B83D2F80C2C16
:1058B000B3481A4410448AE5002088E5B3F5404F08
:1058C000A8BFC0F30D03A6E5B3F5404FA8BFC0F3D2
:1058D0000D0329E610F440407FF4CCAE0C073FF5F1
:1058E00076ADC8073FF5C6AEB9E6A54818446EE5E3
:1058F00000206CE5A14949688B4280F2DF81D2F833
:10590000081C59B192F81C1CDC1302EB840401F052
:105910000702062AD4F80C1C03D00B4498481844FC
:1059200055E5B3F5404FA8BFC0F30D03F5E7D91314
:1059300002EB8102D2F80C2C91481A44104446E53F
:105940008F48184443E58D4949688B4280F2BC81F9
:10595000D2F8081C59B192F81C1CDC1302EB840429
:1059600001F00702062AD4F80C4C03D01C448448EA
:1059700020442CE5B3F5404FA8BFC0F30D03F5E775
:10598000D2F8281CC9077FF5A6AEB3F5604FFFF625
:10599000A2AED2F8102C7A481A44104417E5B3F599
:1059A000404FFFF631AF8E0740F1BB81B3F57C4F1E
:1059B00080F23182B3F5794FFFF626AF7148184473
:1059C00005E5D91302EB8102D2F80C2C6C481A447D
:1059D0001044FCE4D91302EB8102D2F80C2C684885
:1059E0001A441044F3E4B3F5705F80F22681D2F8D4
:1059F000041C8B4202DA002D00F03282B3F5645FA2
:105A0000C0F20682D2F8080C00283FF4E0AC5B49F3
:105A100049688B4280F29782D2F80C2C58481A447D
:105A20001044D4E4A3F50041891302EB8102D2F8BB
:105A30000C2C53481A441044C9E40020C7E4002049
:105A4000C5E40020C3E44E481844C0E4890640F190
:105A5000A48043F2DF718B423FF7B5AED2F8042C3D
:105A60009342BFF6B4AC002D7FF4B1AC4648184465
:105A7000ADE44C0758D5B3F5405FBFF645AE11F025
:105A8000300440F00F8111F0400140F07682D2F8EE
:105A9000042C9342A8BF0846BFF699AC002D00F035
:105AA0000981084693E44C0703D4B3F5405FC0F284
:105AB0005A81D2F8281CC8073FF567AFD2F8102CDE
:105AC0002F481A44104482E4090700F1A28010F420
:105AD000404F7FF4E2ADB3F5705F80F22C82D2F8D4
