:020000041000EA
:10000000002008205D0100101B0100101D010010E0
:100010001101001011010010110100101101001058
:100020001901001019010010190100101F01001022
:10003000110100101901001021010010230100100E
:100040001101001011010010110100101101001028
:100050001101001011010010110100101101001018
:100060001101001011010010110100101101001008
:1000700011010010110100101101001011010010F8
:1000800011010010110100101101001011010010E8
:1000900011010010110100101101001011010010D8
:1000A00011010010110100101101001011010010C8
:1000B00011010010110100101101001011010010B8
:1000C00011010010110100101101001011010010A8
:1000D0001101001011010010110100101101001098
:1000E0001101001011010010110100101101001088
:1000F0001101001011010010110100101101001078
:100100001101001011010010110100101101001067
:10011000EFF30580103800BE00BE00BE00BE00BE7A
:1001200000BE00BEF2EB8871006A0210286A02105D
:10013000A001001090A31AE7D3DEFFFF42012110B7
:10014000FF010000207B0200793512AB4FF0000068
:100150001E49086006C881F3088810474FF05040D8
:10016000006810B14FF00000F2E70DA40ECC00299A
:1001700002D000F012F8F9E71549164A002000E015
:1001800001C19142FCD11449884714498847144958
:10019000884700BEFDE701C901C29A42FBD3704700
:1001A000286A02101001002040130020587C021021
:1001B0000000082000000820587C021000100820D1
:1001C00000100820000000007047000008ED00E06B
:1001D00040130020B8920220A1360010E102001066
:1001E00065360010F8B500BF0348044B834202D0C7
:1001F000034B03B118477047401300204013002001
:1002000000000000064B0749C91A891048BF013198
:10021000491003D0044B0BB101481847704700BF89
:1002200040130020401300200000000010B5064CD1
:10023000237843B9FFF7D8FF044B13B10448AFF359
:1002400000800123237010BDD015002000000000A5
:100250008838021008B5044B1BB104490448AFF3B9
:100260000080BDE80840CDE700000000D415002064
:10027000883802102DE9F041074608460D461EF069
:10028000DBF94028804628BF4FF0400880B1C8F114
:10029000400676106C1EC5F101052E44301914F885
:1002A000012F0023394614F0D5F82B199845F5D8BD
:1002B000BDE8F0810A788AB170B50D460646002483
:1002C00001E0402C09D020460023314614F0C2F84A
:1002D00015F8012F0134002AF3D170BD704700BF1B
:1002E0000322F0B5544B554CA5B01C60544B04464A
:1002F0001A600E4613F064F90023524D012C2B7046
:1003000000F38480504818F013F818B10378002BDC
:1003100040F08A804D4C04F1100754F8046B3046CD
:1003200014F0B8F8002878D1A742F6D140F2FF3295
:100330004749444817F0C2FF0026424885F8FF634A
:1003400014F0A8F80446434803F062FB424803F067
:100350005FFB3C49414803F0DDFB002C45D14048A0
:1003600003F056FB1021402014F06AF802203D49AA
:10037000FFF780FF05203C49FFF77CFF07203B4942
:10038000FFF778FF0A203A49FFF774FF39490B203D
:10039000FFF770FF14F0B4F8044614F0B7F82346E2
:1003A0004121354A009013A803F08EF814F0A2F80A
:1003B000044614F099F82346304A4121009002A8DF
:1003C00003F082F80C2013A9FFF774FF0D2002A997
:1003D000FFF770FF0F202A49FFF74CFF14F052F887
:1003E0000121002013F0A2FFFAE701200DF014F91B
:1003F00013F0E4F8234803F00BFB234803F008FB59
:10040000012008F0D5FD304625B0F0BD40F2FF32A6
:100410002846716817F052FF8EE740F2FF323146EE
:10042000084817F04BFF87E7014640F2FF322846A5
:1004300017F044FF80E700BFDC0B00208838021073
:10044000A00B0020F8780220A038021010480210FB
:10045000B4380210C4380210EC38021010390210FF
:1004600020390210543902107439021084390210F4
:1004700098390210A8390210BC390210DC39021078
:10048000EC390210083A0210283A021010B44FF466
:1004900080740C4B53F8202003EB8003C00082F0E3
:1004A000400200F1804003F5805C02F0C00200F5DC
:1004B000203003F54053CCF8002041601C605DF80B
:1004C000044B70470480034010B4084CC90041EA53
:1004D000820154F8202004EB8003514003F580533F
:1004E00001F00C015DF8044B196070470480034073
:1004F00030B44FF0000343EC440043EC40000525CA
:100500004FF480740B4BC20053F8201003EB8000B3
:1005100081F0400102F1804303F5203301F0C00275
:1005200000F5805100F540500A605D60046030BC09
:10053000704700BF048003400FB400B583B0049C33
:10054000074803F065FA3CB105A92046019103F084
:1005500009F8044803F05CFA012003F01BF800BF1F
:10056000603A0210E43D0210EFF3108072B6064BC1
:10057000D3E8CF1F01220029FAD1C3E8412F002977
:10058000F6D1BFF35F8F7047CF6D02200023034A7F
:10059000C2E88F3F80F31088704700BFCF6D022004
:1005A00070B58646EFF3108572B6124CD4E8CF6F63
:1005B0000120002EFAD1C4E8460F002EF6D1BFF379
:1005C0005F8F4FF0010CC80801F007030CFA03F32A
:1005D0001EF800C01CEA030608D14CEA030C0EF812
:1005E00000C0C4E88F6F85F3108870BD1046FFF718
:1005F000A3FF00BFCF6D0220044A1078431CDBB27A
:10060000182B28BF10231370704700BF080B002061
:100610004FF0E022936843F000539360704700BFAF
:100620000021044B03F12002C3E88F1F01339342E2
:10063000FAD17047C46D02204FF0E0234FF08032B2
:10064000C3F80024C3F80424C3F80824C3F80C2416
:10065000C3F81024C3F81424C3F81824C3F81C24C6
:10066000C3F82024C3F82424C3F82824C3F82C2476
:10067000C3F8302462B67047012300F01F02934094
:10068000400941B1800000F1604000F56140C0F8D0
:10069000803103607047024A203042F820307047B2
:1006A00000E100E0F8B50D46EFF3108772B6124E88
:1006B000D6E8CF2F0123002AFAD1C6E8423F002A0C
:1006C000F6D1BFF35F8F0D4B00F110049B680C4A0D
:1006D00053F82430934203D0994201D001F00CF832
:1006E000064B9B6843F82450BFF35F8F0023C6E896
:1006F0008F3F87F31088F8BDCD6D022000ED00E03C
:10070000110100102DE9F04F83B0EFF3108A72B69B
:10071000744ED6E8CF2F0123002AFAD1C6E8423F13
:10072000002AF6D1BFF35F8F6F4B00F110089B6872
:100730006E4A53F8285095423FD08D420C464AD01D
:100740006B4FEB1B2F2B38D801214FEA50194FEA82
:10075000890909F1604909F5614900F01F0301FAAF
:1007600003F0D9F80030C9F8800000EA030BBFF3AA
:100770005F8FEFF30581C9B279B3884577D125F052
:10078000010EDEF808C0644505D17CE0D3F808C04E
:10079000644532D09E469EF9062002EB4203002AB1
:1007A00007EB8303F2DA644500F08180BBF1000FB0
:1007B00020D0C9F88001C9F800004B4B9B6843F872
:1007C0002850BFF35F8F0023C6E88F3F8AF310885D
:1007D00003B0BDE8F08F1546EFE725F0010EDEF817
:1007E00008C06445D7D19EF906407346002C08DA4C
:1007F000154666E0C9F88000DFE793F90640002C53
:1008000056DB04EB440C07EB8C0CDCF80820610091
:100810009A609CF80720DA719CF90620002A9A71E8
:100820005DDBBCF80420520504D502F5FF1202F589
:10083000FF521F32521502F1020C4FF0040E0C222F
:1008400012FB04E202EB4C026FF0070C3A44ACEBF3
:10085000030C6244C2F34A0242F460429A80254B80
:1008600021441A7807EB81011C708A719EE7CDE95B
:10087000000100F041FFDDE9000125F0010EDEF886
:1008800008C0644587D19EF906407346002CB8DA4B
:10089000194A1A4CD21A083AC2F30A316FEA0151C6
:1008A0006FEA115144EA5202DA8099807EE773467A
:1008B0000029EDD1FF228EF806204BF60152AEF84A
:1008C00004200C4C4AF6AA2294F800C01946C91B11
:1008D00049414A43120D83F806C0227066E74BF681
:1008E0000152BBE7CD6D022000ED00E011010010C8
:1008F0000C0B0020A1920220460B002000F8FFFF05
:10090000F0B5EFF30585EDB2EFF3108C72B6264922
:10091000D1E8CF2F0123002AFAD1C1E8423F002AB3
:10092000F6D1BFF35F8F214E40F0010EB4684AF656
:10093000AA2354F825701E4A0446A41A644163434E
:100940001B0D77455BB21BD092F906409C421CD030
:1009500092F912409C4223D092F91E409C4221D031
:1009600092F92A409C4208BF03240FD0114A002468
:10097000157813708571C1E88F4F8CF31088F0BD26
:10098000B2680D4C42F82540F0E7002404EB440423
:1009900002EB8402FF2494714BF601549480E5E746
:1009A0000124F3E70224F1E7CD6D022000ED00E021
:1009B0000C0B0020A192022011010010014B0B44EE
:1009C00003607047C46D022070B5104C104DAC42EE
:1009D0000ED2FF26236863B1FFF70EFE01462046C4
:1009E000FFF7ECFFA680BFF35F8F0834AC42F1D372
:1009F00070BDFFF701FE01462046FFF7DFFF2671BD
:100A0000BFF35F8F0834AC42E4D370BD38130020CD
:100A1000401300200D4B1A68EFF3108172B6D2E834
:100A2000CFCF0120BCF1000FF9D1C2E84C0FBCF1CF
:100A3000000FF4D1BFF35F8F00221B68C3E88F2F34
:100A400081F3108840BF00200021704718830220E6
:100A50002DE9F04F2DED028B85B0EFF30583DBB26E
:100A6000103B9A0818BF01224FF0010103F0030068
:100A700018BFAF4DAF4B08BFAF4D00EB820253F82C
:100A8000226001FA00FB05F541539FEDA78B019011
:100A9000C3F804B02EE0B388180440F19280B37913
:100AA000002B40F0DC80B6F908100029C0F21D814F
:100AB000736901EB410103EBC103D3E90247B7F1CD
:100AC000FF3F08BFB4F1FF3F0DD0019B05EB830151
:100AD000AB6A0A69D21AE31A934203D32B6A13EA68
:100AE0000B0F00D10C61284600F030FCA042B94148
:100AF000C0F2FB80B6F90830C5F83CB0002B00937B
:100B0000C9DBD6F8149003EB430A284609EBCA0761
:100B1000D7E9024800F01AFCA04271EB0801BADBE9
:100B2000B8F1000FC0F2C380D7E90431834A934281
:100B300000F0ED807A88B6F9080092B242EA0040EF
:100B4000984702460B4652EA030100F0B080002BA2
:100B500080F2D180B4EB020E68EB030839F93A3029
:100B6000C7E902E8002B96DB716903EB430201EB56
:100B7000C202D2E90270BE4578EB000C4FEA430294
:100B800089DBB4462CF8083F0BE031F93230A4463B
:100B9000002B0DDB03EB430001EBC0005A00D0E952
:100BA0000270BE451A4478EB000001EBC204ECDA97
:100BB00029F83A30009BACF80030B38818043FF5B0
:100BC0006EAF3369EFF3108272B6D3E8CF0F012115
:100BD0000028FAD1C3E8401F0028F6D1BFF35F8F89
:100BE0004FF6FF74B0880023316900B2B480C1E8C9
:100BF0008F3F82F310889842FFF651AF0746A9460F
:100C0000746906F1080807EB470E04EBCE03D3E93D
:100C10000250B6F90830C446002B13DBB2460097E9
:100C200004E034F936309446002B09DB03EB43062D
:100C300004EBC602D2E90271BD4270EB0101F0DAA9
:100C40005646009FACF8007034F93E7024F83E30F0
:100C5000002FD8DAB3794D46002B3FF424AF0023A0
:100C6000B371B6F9083006F10808591C3DD0194691
:100C7000776903E080465A1C3FF417AF03EB430249
:100C800007EBC200B0F802C01C461CF4004F9E46A1
:100C900037F93230EED08C4280ED028B05D0A8F8C7
:100CA0000030318927F8321034817146E3E739F892
:100CB0003A3033813369EFF3108272B6D3E8CF0F45
:100CC00001210028FAD1C3E8401F0028F6D1BFF364
:100CD0005F8F7388316929F83A30009B7380002355
:100CE000C1E88F3F82F31088D5E640BF05B0BDEC68
:100CF000028BBDE8F08F2846CDE9022300F026FBE9
:100D0000029A039B10EB020E43EB010826E708460C
:100D10000B69029198470028C9D00299D1E90023B4
:100D200011E700BFAFF30080FFFFFFFFFFFFFFFFF2
:100D300000800B40D874022000000B40510A0010C4
:100D40002DE9F84F364C25692DB1BDE8F84F0A2141
:100D50003448FFF733BEDFF8E4800321404600F05B
:100D6000E3FA0326C4F80C80FFF746FC4FF0504C22
:100D70002D4B267003442361DCF800300F21637093
:100D8000636961801D834FF00405A3F878504FF02C
:100D90000505A3F890504FF00605A3F8A8504FF0B2
:100DA00007050E214FF6FF7208274FF00A0EA3F831
:100DB000C0504FF001094FF00C0C4FF0020B4FF0F8
:100DC000090A0D204FF00B05A3F868111749A280FE
:100DD000A3F808E1A160A3F848B0A3F8F0A0A3F835
:100DE0002051A3F838C1A3F85001A3F83090A3F81C
:100DF0006060A3F8D8701A800D4B3046C8F8207098
:100E00000C49DC60FFF74EFC49463046FFF734FCE6
:100E1000094B0A211F640348BDE8F84FFFF7CEBD18
:100E2000540B002018830220C46D0220FFFF100025
:100E3000D8740220510A001000200B4000000B4023
:100E400000487047540B00200146F0B50069EFF3ED
:100E5000108772B6D0E8CF5F0124002DFAD1C0E828
:100E6000454F002DF6D1BFF35F8FB1F902E04C6919
:100E70000EEB4E0CBEF1000F4FEACC0504EBCC0C90
:100E80003DDB605B002648800869C0E88F6F87F310
:100E90001088BCF80200CCE902230130C0F30E0038
:100EA000012838BF0120059BACF80200CCF81030B7
:100EB000069B40EA0E40CCF814300B69EFF3108229
:100EC00072B6D3E8CFCF0127BCF1000FF9D1C3E848
:100ED0004C7FBCF1000FF4D1BFF35F8F8B8863535D
:100EE000A1F804E00B69C3E88F6F82F31088012238
:100EF000CB68097803F501538A405A60F0BD00239E
:100F00000A69C2E88F3F87F310884FF0FF30F0BDC9
:100F100003464089B0EB214F37DD58690A1402EBD4
:100F2000420210B500EBC2001C69EFF3108C72B6E0
:100F3000D4E8CFEF0122BEF1000FF9D1C4E84E2F63
:100F4000BEF1000FF4D1BFF35F8F428889B292B235
:100F50008A4207D000221B69C3E88F2F8CF31088C8
:100F6000002010BD42F40042428001210022186995
:100F70009971C0E88F2F8CF310881C78DA680846C6
:100F800002F50153A140596010BD0020704700BF19
:100F90002DE9F041861F41F1FF35B04271EB0503A9
:100FA00038BF002682B038BF354604460F4600F0F1
:100FB000D5F9301A65EB0103012873F1000306DA55
:100FC0002046394602B0BDE8F04100F003BA00F017
:100FD000C5F9864265EB010100290ADB0021174BA8
:100FE0003246009316482B460191FFF72DFF00284B
:100FF000E6DB4FF0000C1348134A436A9D4204D8C5
:10100000816AB142DCD29D42DAD11368EFF31081DC
:1010100072B6D3E8CF8F5FF0010EB8F1000FF8D1B0
:10102000C3E848EFB8F1000FF3D1BFF35F8F136847
:10103000C3E88FCF81F3108820BFDEE7150A0010C8
:10104000540B002000000B401883022010B504460A
:1010500000F084F94FF47A734FF0FF3C6FF00042D8
:10106000E4FB0301BDE81040844572EB01033CBF83
:1010700060461146FFF78CBF2DE9F04306460D464A
:1010800083B0EFF30584E4B23CB1274B586AA84221
:101090001CD2002003B0BDE8F083244FD7F80C9099
:1010A00097F80080484600F051F908F1040859F813
:1010B00028301B1A301A65EB0101984271F10001CA
:1010C00011DB20BF184B586AA842E2D39B6AB34297
:1010D00003D3012003B0BDE8F083401B18BF0120FB
:1010E00003B0BDE8F08300F039F9864265EB0101F9
:1010F0000029CADB0E4B3846CDE9003432462B4678
:10110000FFF7A2FE011EC0DD074B5A6AAA4208D3B0
:101110009B6AB34203D30548FFF7FAFEB5E7AA423C
:10112000F9D120BFF7E700BF00000B40540B0020AF
:10113000150A00102DE9F0410446DDE9071552EAD1
:10114000030070D0002B16461F4671DB0698C5E9D8
:1011500000232861AC60696100F000F94FF0FF32B4
:101160006FF00043801947EB0107824273EB0701E0
:101170003CBF1F4610462369EFF3108872B6D3E8D0
:10118000CF1F01220029FAD1C3E8412F0029F6D14F
:10119000BFF35F8FB4F90260616906EB4603002E6E
:1011A0004FEAC30C01EBC30346DB31F80C204FF0D0
:1011B000000E62802269C2E88FEF88F310885A8897
:1011C000C3E902070132C2F30E02012A38BF01222D
:1011D0001F485A805D61186142EA06422369EFF3B5
:1011E000108072B6D3E8CF8F0127B8F1000FF9D184
:1011F000C3E8487FB8F1000FF4D1BFF35F8FA38835
:1012000021F80C30A6802369C3E88FEF80F31088A3
:1012100001202178E36800FA01F103F501535960D8
:10122000EA60BDE8F0810126002732463B468DE7A3
:10123000564263EB430789E700202369C3E88F0F19
:1012400088F310884FF0FF32EA60BDE8F08100BFFC
:10125000510A00100246C06800B970479168031433
:10126000B1F80AC0BCEB204F3DDD30B54C6903EB53
:10127000430304EBC30C0B69EFF3108E72B6D3E893
:10128000CF5F0124002DFAD1C3E8454F002DF6D1E0
:10129000BFF35F8F83B2BCF8020080B2834209D0F3
:1012A00000230969C1E88F3F8EF3108800230020D6
:1012B000D36030BD43F40043ACF802304FF0010C72
:1012C0000023086981F806C0C0E88F3F8EF31088BC
:1012D000CB68097803F501530CFA01F1596000233A
:1012E0006046D36030BD00230020D360704700BF4C
:1012F000084AD0E90003516A8B4204D8926A8242BC
:1013000003D30120704700207047581A18BF0120EE
:10131000704700BF00000B4001460248C1E90023AE
:10132000704700BFF112001010B4054B054C064A7F
:10133000A04214BF1846581C5DF8044BFFF730B9A3
:10134000006F022000800B40703A02100346416A91
:101350000A46986A596A8A42FAD17047034B596A19
:101360000A46986A596A9142FAD1704700000B40C8
:1013700010B4174A536A9C46946A536A6345FAD17B
:10138000001959414FF0000228BF01220346CAB19B
:101390000F4B596A4B1C08BF0B4608D04FF0FF316A
:1013A0000B460B48426A8A42FCD38A4207D1084A5C
:1013B00002E0506A884202D1906A9842F9D35DF8FF
:1013C000044B7047024A526A9142EAD8EDE700BFE7
:1013D00000000B40074A536A9942FCD8994207D152
:1013E000044B02E05A6A914202D19A6A8242F9D3CE
:1013F000704700BF00000B40F8B5054606200E46BA
:1014000000F0E4F8002842D0354A3648954214BF2F
:101410004FF080624FF00062334B344902601A6033
:101420008C6832EA0404FBD12D4B4FF48071EB1A27
:10143000B3FA83F32E4A5B09062022F8131000F05A
:10144000C5F8C300B3FBF6F30133DA0920D1402617
:1014500001216962AA622F6BFB0722D42B4600226E
:1014600053F82C1F062003F5805422602F6300F0F0
:10147000ADF840F2013103228000B0FBF6F0EB6AD8
:1014800083F0700303F07E0323602963AA64F8BD30
:101490004FF6FE718A421BD922464FF6FF71154E58
:1014A000D7E740F2013205F540531A636B6AAC6A24
:1014B000062004EB831400F089F80F4BA402A3FB71
:1014C0000023DB0A0021B4FBF3F0FFF751FFC5E76F
:1014D000C3F34503114603EB82161A46B9E700BF72
:1014E000008007400020024000300240000002401F
:1014F00080920220C0FF3F00757B2B8F00EB400CD9
:101500004FEA8C0C0CF1804C0CF5803CF0B5164683
:10151000DCF80420051FB2F5803F38BF4FF480325D
:10152000EDB238BFCCF80420012D2AD94FF4006762
:10153000254C0CF54052176054F82020B2B9DCF865
:101540000020012D82EA461202F0E0020CF58056DE
:1015500032602AD94FF4006144F820304FF48033D0
:101560000CF500521160CCF80430F0BD6769B7FB90
:10157000F2FE0EF1010E0EEB4E0EBEF1030EFCD28A
:10158000DDE70129D2D103240CF540521460DCF8C8
:101590000820D207FBD5DCF800200B4C82EA46126B
:1015A00002F0E0020CF5805632600122DCF80050B7
:1015B0004D4005F00305356002FA01F1DCF8082022
:1015C0000A42FBD0C6E700BF086F0220014B53F868
:1015D00020007047086F022070B4039D04682D033B
:1015E00045EA03451B4B002CB3FBF1F3B2FBF3F6CA
:1015F0001FDB194A194B904214BF4FF480424FF43D
:101600000042174C1A6003F580531A60A36832EA4F
:101610000303FBD1212200F54053043301608660AF
:101620001A600268002AFCDA0822C5601A6070BCE1
:101630007047036803F03F038B42DAD18368C3F33A
:101640000B03B342D5D1C36803F4EE23AB42D0D130
:10165000EDE700BF001BB7000080054000200240FE
:1016600000000240012300EB4000800000F18040B8
:1016700000F5841041600360704700BF0023DB8ADF
:10168000002242E800F2520201D41021184704213E
:10169000184700BF034AD2F82838002BFBD0BFF30D
:1016A0005F8F704700000E400021044B044ABFF3D7
:1016B0005F8F43F8041B9342F9D170470C080E402A
:1016C0002C080E4010B44FF48D704FF42A64064A73
:1016D000064B07491460D06019605368002BFCDA90
:1016E0005DF8044B704700BF0080044000A0044038
:1016F00000B0FA00704700BF08B50148FEF71CFFB4
:10170000943A021038B5054C054DAC4204D254F859
:10171000043B9847AC42FAD338BD00BF40380210B2
:101720008038021010B40748074C084B084A094992
:1017300004601A608B6832EA0303FBD15DF8044B46
:10174000704700BF002002407F3BEFEF00300240B7
:10175000F6FFF30300000240044BDB6CB3F5004FCF
:1017600003D14FF48022024BDA647047000011501D
:10177000002011504FF0E022044BD2F8881D0B439B
:10178000C2F8883D10EE3004704700BF03033000FC
:101790006FF06041044B054A19609368DB4333F0F6
:1017A0006043FAD1704700BF0030024000000240A1
:1017B00010B545F25320FFF761FFBDE81040034626
:1017C0000420184710B545F25320FFF757FFBDE836
:1017D0001040034601201847FEF722BF70B5144998
:1017E000144C154D641AA610442E324628BF4422CC
:1017F000284692001BF0A6F9B4F5867F13D80F4A4D
:10180000C6F1440112D02B19480803EBC000C3E90C
:10181000002208338342FAD1CB0704D521F001031B
:10182000334445F82320064B9D6070BD4323F8E701
:101830000000001010010010000000201101001035
:1018400000ED00E0002370B52B4C82B0C4F884306A
:10185000FFF738FF0122294BDA63636C012BFCD1BF
:101860000321264A244B11639C6B012CFCD10226D8
:10187000052521460523224A22480096FFF7ACFEA3
:1018800021462B46204A21480095FFF7A5FE00225D
:10189000042031461E4BFFF731FE21462846002228
:1018A0001C4BFFF72BFE0022082011461A4BFFF7B6
:1018B00025FE002209201146174BFFF71FFE0022CC
:1018C00006201146134BFFF719FE0022114B07208B
:1018D0001146FFF713FE0420FFF778FE00240F4B9C
:1018E000A3FB0035AD0CE0B229460134FFF7BAFE88
:1018F000062CF8D102B070BD00000140003001405C
:10190000002F685900000540008C86470080054084
:10191000001BB70080D1F008006CDC0283DE1B43A3
:1019200086B003B451FC0804CDE9020151FC09045E
:10193000CDE9040151EC0A04CDE9060103BCF047EE
:10194000BDE800504EEC00C4BDE800504EEC01C4B0
:10195000BDE800504EEC02C400BD000000B5FFF72A
:10196000DFFF02E010FE30F4F8D441EC100443EC49
:10197000112400EE010410EE010480EE200451EC6D
:101980001004704700B5FFF7CBFF02E010FE30F403
:10199000F8D441EC100443EC112400EE010410EEE5
:1019A000210480EE200451EC3004704700B5FFF7AD
:1019B000B7FF02E010FE30F4F8D410B541EC10048B
:1019C00043EC112451EC040453EC0524A0FB024C1D
:1019D0005FF0000EE0FB03CEE1FB02CE4CEC2044B6
:1019E0000024E1FB03E444EC30E480EE200451ECFD
:1019F0005004BDE81040704700B5FFF791FF02E0CA
:101A000010FE30F4F8D441EC100443EC112451ECF6
:101A10002104A0FB01126FEA820252FB100052FB6C
:101A200012F252FB1000A0EBD07C53EC04245CFBC0
:101A300013F153EC1524A1FB022001FB030053EC2E
:101A40004424A2EB000050FB1CF24FEA111312EBEE
:101A5000017043EBE27140EA515020EA915020F0CE
:101A6000070053EC7524A0FB023C53EC752400FBEB
:101A700003CC01FB02CC53EC0424ACEB824C40EAD7
:101A80005C70A0F1010041EC400480EE200451ECB8
:101A90007004704700B5FFF743FF02E010FE30F41A
:101AA000F8D441EC100480EE220410EEB20470472A
:101AB00000B5FFF735FF02E010FE30F4F8D440EC3B
:101AC000700400EE010410EE210480EE200451ECBD
:101AD0003004704700B5FFF723FF02E010FE30F43A
:101AE000F8D440EC600400EE010410EE210480EE16
:101AF000200451EC3004704700B5FFF711FF02E0FD
:101B000010FE30F4F8D441EC800400EE010410EE35
:101B1000010480EE400410EE1304704700B5FFF797
:101B2000FFFE02E010FE30F4F8D441EC800400EE39
:101B3000010410EE010480EE400410EE33047047FF
:101B400000B5FFF7EDFE02E010FE30F4F8D441ECF2
:101B5000100443EC112400EE010410EE3004C0F335
:101B60000070704700B5FFF7DBFE02E010FE30F4B6
:101B7000F8D441EC100443EC112400EE010410EE03
:101B80003004C0F38070704700B5FFF7C9FE02E073
:101B900010FE30F4F8D443EC102441EC110400EEB4
:101BA000010410EE30F48CBF01200020704700BF0C
:101BB00000B5FFF7B5FE02E010FE30F4F8D443ECB8
:101BC000102441EC110400EE010410EE30F42CBF9F
:101BD00001200020704700BF00B5FFF7A1FE02E022
:101BE00010FE30F4F8D441EC100443EC112400EE64
:101BF000010410EE30F42CBF01200020704700BF1C
:101C000000B5FFF78DFE02E010FE30F4F8D441EC91
:101C1000100443EC112400EE010410EE30F48CBFEC
:101C200001200020704700BF0022002950DA404206
:101C300061EB4101C9B1B1FA81F30B3B17D4D3F188
:101C4000200C30FA0CFC9840994051EA0C011A44DF
:101C5000524202F2324201EB025141F0004140F2A5
:101C6000FE739A4238BF704721E011467EE003F1CF
:101C7000210310FA03FCA3F1010301FA03FCC3F1F1
:101C8000200320FA03F021FA03F140EA0C00A3EB51
:101C9000020202F2324214D050F1000041EB025134
:101CA00041F0004140F2FE739A4238BF70474FF056
:101CB0000001A8BFC7F6F0714FF000007047002187
:101CC0007047EBD350F1000020F00100E6E700225E
:101CD000B9B1B1FA81F30B3B16D4D3F1200C30FA31
:101CE0000CFC9840994051EA0C011A44524202F20D
:101CF000324201EB025140F2FE739A4238BF704704
:101D000020E0114600F066B803F1210310FA03FC4D
:101D1000A3F1010301FA03FCC3F1200320FA03F04D
:101D200021FA03F140EA0C00A3EB020202F2324274
:101D300012D050F1000041EB025140F2FE739A4282
:101D400038BF70474FF00001A8BFC7F6F0714FF0E1
:101D50000000704700217047EDD350F1000020F0E3
:101D60000100E8E7002880F235804042B0FA80F3B5
:101D70000B3B11D4984001EB0302524202F2124293
:101D800000EB025141F000414FF0000040F2FE73C1
:101D90009A4238BF704713E0C3F1000330FA03FCE6
:101DA000C3F120029040A3EB010202F212420CEBBD
:101DB000025141F0004140F2FE739A4238BF704731
:101DC0004FF00041A8BFCFF6F0714FF00000704710
:101DD0000021704760B3B0FA80F30B3B0FD49840FA
:101DE00001EB0302524202F2124200EB02514FF0A9
:101DF000000040F2FE739A4238BF704710E05B4229
:101E000030FA03FCC3F120029040A3EB010202F27E
:101E100012420CEB025140F2FE739A4238BF7047F7
:101E20004FF00001A8BFC7F6F0714FF000007047F7
:101E3000002170470022A2F232425FEA215CACF13D
:101E40000103A1EB03515B0513F5800F32D212EBB6
:101E5000535210D40B2A36DA9140D2F1200330FAD3
:101E600003F319439040BCF1000FA8BF70474042F4
:101E700061EB4101704720320EDD01FA02F3D2F12D
:101E80002002D140D0401843BCF1000FA8BF7047DA
:101E9000404261EB41017047524282F3050231FA40
:101EA00002F00021BCF1000FA8BF7047404261EB77
:101EB0004101704702D000200021704750EA0131F3
:101EC00018BF4FF0000C6FF0004101EBDC716FEABE
:101ED000EC70704710B504461AF024FE28B1034692
:101EE000034A2344934200D810BD0248FEF724FB66
:101EF00000000820A03A02101AF01CBE9A4238BF17
:101F000088547047704700BF2DE9F04F83B0994661
:101F1000DDE90DAB0F9B884611469A07074616D19F
:101F2000DA453AD20C460D46ABEB0A060E44224681
:101F30004B46414620200134B847B442F7D12946E8
:101F4000BAF1000F08D1204603B0BDE8F08F0C466F
:101F5000BAF1000F10D00E4655460C9B2E449A4401
:101F60000191721B4B46013D41461AF8010D344662
:101F7000B847002DF5D101990F9B9B07E3D5651A52
:101F8000AB45E0D922464B46414620200135B847B3
:101F90005D4504F10104F5D3D5E7BAF1000FDAD1BC
:101FA0000C46D0E72DE9F04F0F9FDDF824E017F045
:101FB000020F0A9C9DF82C900E9DDDE90C8629D11C
:101FC000002D6FD1B44225D2202C07F0010B00F078
:101FD000128104F1FF3C4FF0300AF44401E0202C60
:101FE0007AD00134A6420CF801AFF8D8BBF1000F4B
:101FF00010D0AC420ED2202C74D004F1FF3C4FF034
:10200000300AF44401E0202C29D00134AC420CF811
:1020100001AFF8D117F0100F3AD017F4806F28D124
:102020001CBBB8F1100F00F0CA80B8F1020F00F02D
:10203000D48030248EF800400124B9F1000F67D11C
:102040007E0740F1AA802B260EF804600134CDE90A
:102050000B57CDE909E4BDE8F04FFFF755BFFC068B
:1020600040F189807C0535D42024A6426AD0AC4258
:1020700068D0B8F1100F00F08780B8F1020F5AD085
:10208000202CE4D0264601344FF0300C0EF806C068
:10209000202CD2D1CDE90B57CDE909E4BDE8F04FB2
:1020A000FFF732BF17F0010B3ED0B9F1000F47D157
:1020B00017F00C0F44D1B4429BD2202C89D1202D93
:1020C00010D8FC0657D57C0555D4202E00F0B980D9
:1020D000202D10D02024CCE7BBF1000F00F0A5800C
:1020E000202DBCD9FC0646D57C0544D4202E00F01A
:1020F000A880202D3FD12C461F26B8F1100F7FD08D
:10210000B8F1020FC0D14FF0620C0EF806C0B7E76D
:102110002D260EF804600134CDE90B57CDE909E412
:10212000BDE8F04FFFF7F0BEB442BFF473AF202C10
:102130007FF44FAFD6E7202C89D026460134E2E762
:10214000013DB8E7661ED8D1B8F1100F64D0B8F1E0
:10215000020F7FF46EAF62268EF800603026444690
:102160008EF80160B9F1000F3FF46AAFD0E7B8F123
:10217000100F7FF46CAF2024CDE90B57CDE909E4B3
:10218000BDE8F04FFFF7C0BEBE060ED4202CF2D043
:1021900078260EF80460013472E73E077FF557AFEA
:1021A00020260EF80460013451E7202CE3D04FF0D4
:1021B000580C0EEB040686F800C0013460E7BE063A
:1021C00017D558248EF8004030248EF801400224A0
:1021D000B9F1000F3FF434AF9AE762248EF8004063
:1021E00030248EF801400224B9F1000F3FF428AFEB
:1021F0008EE77824F2E7BBF1000F7FF462AF71E75E
:1022000017F0200F0CBF4FF0780C4FF0580CA61EA3
:102210000EF806C0013C35E7BC06EAD558248EF816
:10222000004030248EF80140DDE717F0100F3FF436
:102230000EAF17F4806F9AD1202E7FF418AF1F26AF
:102240005BE734461F2658E700B9704701F09EBB94
:1022500010B1D1E900311847704700BF00000000FD
:102260002DE9F04F9FB09DED287BDDE92AA558ECC4
:10227000177B83461E460D91109243463A463846D8
:1022800041468DED087B2C9CFFF75EFC002840F05A
:10229000D880384641464FF0FF32754BFFF7B4FC0B
:1022A000002840F0CE80384641464FF0FF326FF4B0
:1022B0008013FFF76DFC002840F0C380DDE908784B
:1022C0000022384641460023FFF762FC002840F018
:1022D000C081CDE90A78DDE90A2390461F4614F44F
:1022E000806308BF4FF0060A139304F4006258EAB3
:1022F0000703119240F0C080002A00F0A2819FEDF8
:102300005A7B00278DED0E7B4FF00009BA45CCBFFC
:10231000AAEB070A4FF0000A4F46C8BF0AF1FF3A7E
:1023200044F480644D4594BF4FF00008A5EB0908C4
:1023300014F00203119304D0B9F1000F18BF4FF04D
:1023400000083FB1DDE90A01DDE90E23FFF758FB84
:10235000CDE90A01DDE9080100220023FFF718FC9E
:1023600030B1DDE90A01024601F10043CDE90A235B
:102370009DED0A7BCDE902A8DDF834A024F40063CA
:1023800004938DED007B334651465846109A00F079
:1023900097F98046B9F1000F4FD014F0200F024694
:1023A00000F1010433460CBF652045205146D84753
:1023B00009F1FF3087EAE77C0DF1580900224B460E
:1023C000DFF8B080ACEBE77C4FEAD77E01E0202A53
:1023D00010D0E246A8FB0C71C90801EB8107ACEBF9
:1023E00047073037BAF1090F8C4602F1010203F8B2
:1023F000017BECD805230590069300200A230D9F4E
:10240000CDE90330CDE9012E334622463946584600
:10241000CDF80090FFF7C6FD119B80466BB1109B75
:10242000C41AA54209D94246334639462020013410
:10243000D847A54208F10108F5D840461FB0BDE8CD
:10244000F08F9DED087B33465846109A0D998DED1F
:10245000287BCDE92B54CDF8A8A01FB0BDE8F04FE4
:1024600000F02EB9AFF30080000000000000000073
:10247000FFFFEF7FCDCCCCCCC7F30A50A0F2FF30EA
:10248000FFF71AFB8AA3D3E90023FFF793FA8AA385
:10249000D3E90023FFF766FAC7F31307CDE90E016E
:1024A00047F07F51404600227B4B41F44011FFF73B
:1024B0006DFA6BA3D3E90023FFF77CFA02460B46C3
:1024C000DDE90E01FFF74EFAFFF71AFB0746FFF7AB
:1024D000F3FA65A3D3E9002380468946FFF76AFA39
:1024E00000226E4BFFF73EFAFFF70AFB0346494610
:1024F000404612935EA3D3E90023FFF75BFA8046C0
:1025000012988946FFF7D8FA5BA3D3E90023FFF7B7
:1025100051FA02460B4640464946FFF737FA024653
:102520000B4680468946FFF745FA42464B46CDE9C1
:102530000E0140464946FFF715FA0022CDE9140185
:10254000DDE90E01564BFFF75BFA0022554BFFF712
:1025500009FA02460B46DDE90E01FFF751FA0022A7
:10256000514BFFF7FFF902460B46DDE90E01FFF77D
:1025700047FA42464B468046894600204FF080414C
:10258000FFF704FA02460B4640464946FFF7EAF9D0
:1025900002460B46DDE91401FFF732FA0022434BF5
:1025A000FFF7E0F9129B002203F2FF3C4FEA0C53C5
:1025B000FFF700FA80468946DDE90A0142464B46AC
:1025C000CDE90E89FFF7E4FA68BB4346494607F1B7
:1025D0006302C62A119A8CBF4FF005094FF0040917
:1025E000002A3FF49FAE0B433FF48EAEDDE90A01B3
:1025F00023A3D3E90023FFF7F3FA48B1DDE90A0189
:1026000021A3D3E90023FFF7C3FA00287FF47CAEAF
:10261000BAF1000F3FF486AE139B002B3FF482AE5D
:102620000AF1FF3A7EE600221E4B40464946FFF77C
:10263000E7F90A4601460346CDE90E12013F11466D
:10264000C5E79FED137B17464FF004098DED0E7B18
:1026500068E608F100430A970B933CE6AFF300806D
:1026600061436F63A787D23F71A379094F930A40F3
:102670001655B5BBB16B0240EF39FAFE422EE63F6C
:102680002D431CEBE2361A3F0000000080842E41EF
:1026900000000000000000000000F83F0000E03FE4
:1026A00000002C4000002440000018400000F03FD3
:1026B000FB799F501344D33FB3C8608B288AC63F31
:1026C0002DE9F04F97B0DDE92089CDE90401DDE97E
:1026D000224BCDE90623404642464B464946DDF8AB
:1026E00090A0FFF731FA002840F0C58140464946E6
:1026F0004FF0FF326FF48013FFF74AFA002840F0E2
:102700001D81404649464FF0FF32C14BFFF77CFA2E
:10271000002840F0E380B8A3D3E9002340464946AF
:10272000FFF772FA002840F0CB80B5A3D3E900236D
:1027300040464946FFF72CFA002840F0C180404649
:10274000494600220023FFF723FA002840F0E080EA
:102750001AF480650D9000F0E980092C40F2968112
:102760000EAB1A460C9330210023A4F10905013366
:10277000202B02F8011BA4EB030600F03A81AB42C8
:10278000F5D19FED9D7B8DED087B49464046FFF7D7
:10279000B7F90446FFF790F902460B464046494612
:1027A000FFF7F4F8DDE90823FFF704F902460B46CA
:1027B000CDE90A23FFF7B6F90746FFF78FF902467E
:1027C0000B46DDE90A01FFF7E1F802460B46CDE9C9
:1027D0000A2300228F4BFFF717FA002800F0DB8056
:1027E00001373846FFF77AF9DDE90823FFF7F8F9F2
:1027F00008B100270134002E40F0B1802046FFF7D9
:102800005BF902460B4640464946FFF7BFF80022F7
:10281000804B06460F46FFF7BBF940B930463946B4
:1028200000227C4BFFF7F0F9002800F015810C9B8B
:10283000691E7948194410E080FB0462C3EBA203CF
:1028400003EB8302A4EB420404F1300201351C4681
:1028500001F8012F002B00F0AB80202D4FEAE4732C
:10286000EAD10AF00303012B1CD1BBF1000F19D0F0
:102870000D9B002B40F0F9801AF00C0F40F0F58012
:10288000AB4540F2D380202D0BD030220C996B1E2B
:102890000B4401355D4503F8012F00F08D80202D9C
:1028A000F7D12025DDE90623DDE904010C9CCDE903
:1028B00002BA01950094FFF727FB17B0BDE8F08F2F
:1028C000CDE92089DDE90623DDE90401CDE923BA5C
:1028D000229417B0BDE8F04FFFF7C2BC4F4DCDF8C2
:1028E0008CA00AF0040ABAF1000F4D4C18BF2C4618
:1028F000DDE90623DDE9040120940CBF0324042450
:10290000CDF888B0219417B0BDE8F04FFFF7FCBABE
:102910004B46424600200021FFF738F801231AF405
:102920008065804689460D937FF417AF9FED367B17
:102930000EAB06268DED087B0C9326E70424DDE91B
:102940000623DDE90401374DCDF88CA0CDF888B021
:102950002095219417B0BDE8F04FFFF7D5BA0C9B36
:10296000681EDFF8C4C018440DE0ACFB0721C9089D
:1029700001EB8102A7EB42023032092F00F8012F50
:1029800027D90F461D46202D05F1010306F1FF361C
:10299000EBD120254BE70022DDE90A011D4BFFF7B3
:1029A000F7F800287FF427AF002F5AD1013722E72C
:1029B0000AF00303012B75D0202D3FF473AF0D9B5C
:1029C000BBB32D2205F158036B4403F8202C0135CD
:1029D00068E7202BDDD0AEB30C9A1E44154430229C
:1029E00001E0B3422ED00133202B05F8012FF8D19E
:1029F000CFE71D46C5E600BF0000000065CDCD4114
:102A00000000000065CDCDC10000000080842E4193
:102A1000FFFFEF7F0000E03F67666666E43A021062
:102A2000EC3A0210F43A0210CDCCCCCC202D3FF47D
:102A300039AF1AF0040F0DD11AF0080F3FF432AF7E
:102A40002022BFE72E2103F158026A4402F8201C1D
:102A50005D1CECE62B22B5E7E3077FF5E8AE013419
:102A6000E5E6FA077FF5C7AEA0E70BF1FF3BAB4504
:102A70003FF609AFA0E70324DDE90623DDE9040101
:102A80000A4DCDF88CA0CDF888B061E7084B2646FA
:102A900003EBC40393ED007B0EAB8DED087B0025AB
:102AA0000C9372E6BBF1000F86D0E1E6F03A02101B
:102AB000804802102DE9F04F9A469BB0249C964D19
:102AC0000B94964C0B1E18BF834625609AF80000A5
:102AD000934C0A9308BFA3460992002800F0BC82D9
:102AE0004FF000090AE04A46099B0A9909F10109D9
:102AF000D8479AF80000002800F0CE8025280AF177
:102B0000010AF0D10023524612F8010BA0F1200176
:102B100010290AD8DFE801F04009093C0909090930
:102B200009090938093409093000A0F130010929DF
:102B300040F28C802A2800F0F58000210C912E288C
:102B400000F099800027A0F1680112292DD8DFE854
:102B500011F057012C0051012C0045012C002C00D4
:102B60002C002C002C002C002C0027002C002C000A
:102B70002C002C002C002700924643F00103C2E7F2
:102B8000924643F00203BEE7924643F00403BAE7DD
:102B9000924643F01003B6E7924643F00803B2E7CB
:102BA0009AF8010043F4807301326728924600F2DC
:102BB0008280242840F2C680A0F12502422A00F239
:102BC000C180DFE812F05F01BF00BF00BF00BF009F
:102BD000BF00BF00BF00BF00BF00BF00BF00BF00FD
:102BE000BF00BF00BF00BF00BF00BF00BF00BF00ED
:102BF000BF00BF00BF00BF00BF00BF00BF00BF00DD
:102C0000BF00BF00BF00260145012601BF00BF0075
:102C1000BF00BF00BF00BF00BF00BF00BF00BF00BC
:102C2000BF00BF00BF00BF00BF00BF00D301BF0097
:102C3000BF00BF00BF00BF00BF00BF00BF00BF009C
:102C4000D3016701D301260145012601002100E0DF
:102C5000013201EB810100EB410110789246A0F1B5
:102C60003004092CA1F13001F2D92E280C9102F187
:102C700001027FF467AF9AF801001146A0F1300617
:102C8000092E43F4806340F231812A2800F03E810E
:102C900092460027013256E74C46099B994501D3DD
:102CA00003F1FF394A460020099B0A99D84720467C
:102CB0001BB0BDE8F08FA0F16902D2B20F2A41D853
:102CC000012649F2410196400E4040F001810A2A56
:102CD0003FD0072A36D10B9C54F8042B002A00F071
:102CE000288143F021010DF1480E704603E0202EAB
:102CF00000F029811A4602F00F052B46092D94BFDA
:102D0000303337330F2A00F8013B06F101064FEA52
:102D10001213ECD817E100BFB52A00103072022060
:102D2000051F00100B9C9AF8010054F8045B9246B2
:102D3000002DBDBF694243F002030C910C950B942A
:102D40000132FCE64A46099B0A9909F10109D84774
:102D5000CFE60B9951F8048B98F800201046002F0D
:102D600040F0E18072B16FF0010C0CF1010C4646AD
:102D7000C44401E0664503D016F8014F002CF9D198
:102D8000A6EB080613F4806C02D0BE4228BF3E4674
:102D900013F0020400F08781002A00F02B81BCF1BF
:102DA000000F00F041810B940D964A46DDE909546D
:102DB0000E464F4408E02B462146D84718F8010F2D
:102DC00009F1010910B14A464F45F4D131460B9C37
:102DD0000D9E002C40F00E810B918AE69AF80100BE
:102DE0006C287FF4DFAE9AF8020043F440730AF1D6
:102DF0000302DAE69AF8010043F400730132D4E6E4
:102E00009AF80100682800F0208143F08003013225
:102E1000CBE6672800F0E780472800F000814528CE
:102E200000F0FF800B9C04930C9B0734CDE90273E8
:102E300024F007031C46DDE90931F4E802674A463D
:102E40005846CDE900670B94FFF70AFA814650E631
:102E500046280B9C08BF43F0200304930C9B0734C7
:102E6000CDE9027324F007031C46DDE90931F4E8DB
:102E700002674A465846CDE900670B94FFF720FCED
:102E8000814636E64A462520099B0A9909F101093F
:102E9000D8472EE60B9A9C0702F1040709F10106B8
:102EA00040F1E6801078099B4A460A99D8470C9B66
:102EB000012B40F22C81DDE90954994432462B461E
:102EC000214620200136D8474E45F7D10B9710E612
:102ED0006F2800F08B8040F26581782800F008812F
:102EE0004FF00A0823F01003C44647E0002707EB21
:102EF000870700EB4700A0F1300711F8010FA0F1A0
:102F00003002092AF3D98A464A1C1CE60B9C9AF81F
:102F1000020054F8047B0AF1020A0AF101020B9440
:102F200027EAE7770FE6002A3FF42CAF07F1FF3CD2
:102F30001BE723F0100113F4806241F021013FF4FC
:102F4000D2AE0DF1480E08231020059300234A4607
:102F5000CDE9023006915846DDE90931CDE900E6B8
:102F60000497FFF71FF80B948146C2E5582879D0E3
:102F7000622840F051824FF00208C44613F480608A
:102F80006DD123F00C0313F4007240F0C2800B9952
:102F900004310D9113F4807140F02E825E060B9A7D
:102FA00040F1AA801278002A40F0DA8023F0100362
:102FB000002800F0D58011460DF1480E06930C9BB9
:102FC000CDF80CC0CDE90473019100234A46029369
:102FD0005846DDE90931CDF800E0FEF7E3FF0D9B2F
:102FE00081460B9385E543F400631BE74FF0080827
:102FF000C446C3E70C9B4C46B3427FF6EDAE0F468A
:103000004B44A3EB0609DDE9096522463346294610
:1030100020200134D8474C45F7D13946DCE643F44B
:10302000006343F02003FDE60F460B94DDE90954ED
:103030004A462B462146D84718F8010F09F10109E5
:103040000028F5D139460B9CC3E69AF8020043F0FC
:10305000C0030AF10302A8E5044681461DE623F0F9
:103060000D0390E74FF0100843F02003C44685E7B6
:103070000C9B012B45D9DDE909544E4609F1FF3877
:10308000984432462B46214620200136D8474645F3
:10309000F7D10C9B324699440B9B1878DDE9093136
:1030A000D8470B9725E50C9BB34240F2EE81CDE962
:1030B0000D48DDE9095488464B449E1BCDF82CC0D1
:1030C0004A462B462146202009F10109D847B1453F
:1030D000F6D14146DDF838800C9BDDF82CC00D9C04
:1030E00098F800205E1C1046002A7FF458AE73E664
:1030F0004FF01008C44641E71D064CBF1288126805
:1031000051E713464A461878DDE90931D847B146F8
:10311000DCE60B9C073424F007042246656852F86D
:10312000084B0B9254EA050240F02C8123F0100367
:10313000002800F0278100260DF1480E06930C9B15
:103140004A46CDE904730023CDE900E6CDF80CC072
:1031500002935846DDE90931FEF724FF8146C8E4B1
:1031600013F0200F14BF412061200DF1480E764668
:10317000A0F10A0803E020293FF420AF2246B2FB69
:10318000FCF40CFB1425E8B2092D00F130058ABFD0
:103190004044E8B2C0B2624506F8010B01F10101FA
:1031A000E9D20BE723F0100269280D9240F06F81FD
:1031B00013F4806204D04FF4806223F011030D9366
:1031C0000D9B13F4007640D10B9B03F104080D9B7B
:1031D00013F4807040F09880590640F1C6800B9B34
:1031E00019780C46CB0F002900F0B98022460DF16A
:1031F000480E74461646DFF8A0C201E020280FD022
:103200003546ACFB0621C90801EB8102A6EB420260
:103210003032092D0E4600F1010004F8012BEDD8E3
:103220000D9ACDE9010306920C9ACDE904720A23A6
:103230004A4603935846DDE90931CDF800E0FEF730
:10324000B1FECDF82C80814653E40B9C073424F06A
:10325000070421460846636850F8081BDC0F0B90F2
:1032600051EA030000F0C3800A46191E48DB1346EA
:103270000DF1480EF4460026CDE90E94DFF81882D1
:1032800001E0202E2DD05A1842F10002A8FB02596D
:1032900029F0030505EB9905521B1C469B1A61F1A9
:1032A000000508464FF0CC3101FB03F108FB051186
:1032B000A3FB08531944052305F00109A9FB0339B1
:1032C0009B180A2C03F130034FEA550570F10000FA
:1032D0000CF8013B06F1010645EAC1734FEA5101C2
:1032E000CFD2DDE90E940D9B4A4606930C9BCDE9A7
:1032F0000164CDE904730A23CDF800E0039328E7C5
:10330000524261EB4101B2E70B9B1968CB0F0029D8
:1033100000F0AB8081EAE172A2EBE1720DF1480EA0
:103320007046DFF874C101E0202E10D01546ACFBCA
:103330000241C90801EB8104A2EB440404F130020C
:10334000092D00F8012B06F101060A46ECD80D9A6A
:10335000CDE9016306920C9ACDE9047267E7002A71
:103360003FF445AF0DF1480E5AE713F0800F0B9B69
:1033700000F08180B3F9001081EAE174A4EBE174FC
:10338000A4B22FE713F0200F14BF412261220DF1E8
:10339000480E0A3ACDE90D97CDF844B0002677469D
:1033A000F3469146CDE90F3C03E0202E17D00446AA
:1033B0000D46294642460023204620F025FAD2B287
:1033C000092A02F1300388BF02EB09034445DBB24E
:1033D00075F1000507F8013B06F10106E5D2DE466E
:1033E000DDE90D97DDE90F3CDDF844B0A6E6002AE3
:1033F00047D1134611463BE70B990968A1B923F061
:10340000100388B10DF1480E06930C9BCDF80CC04B
:10341000CDE904730192D8E513F480627FF4CBAE5A
:1034200023F010030D93CBE613F0200F14BF4120BF
:1034300061200DF1480E7646A0F10A0802E0202A2C
:10344000E2D02146B1FBFCF40CFB1415E8B2092DC7
:1034500000F130058ABF4044E8B2C0B2614506F8C9
:10346000010B02F10102EAD2CEE7002A3FF456AF87
:103470000DF1480E6BE7196881EAE174A4EBE17481
:10348000B0E600260DF1480E2DE701362BE64FF091
:103490000A081346C44671E5CDCCCCCC0EB410B5A9
:1034A00085B007AC54F8043B01464FF0FF3200945E
:1034B00004480394FFF7FEFA05B0BDE8104003B0DE
:1034C000704700BFFD1E001084460CB410B584B0D8
:1034D00006AC54F8043B0A46009461460448039441
:1034E000FFF7E8FA04B0BDE8104002B0704700BF33
:1034F000FD1E001070B594461E4605460C4684B06D
:103500004FF0FF32634602A900960348CDE902540A
:10351000FFF7D0FA04B070BD512200100FB410B5FF
:103520000E4B84B006A91C6851F8043B03915CB1B2
:1035300000914FF0FF3202A90948A047012004B0D2
:10354000BDE8104004B07047184600F061FA20460C
:1035500004B0BDE8104004B0704700BF30720220D4
:103560004922001010B5094B84B01C684CB10346C9
:1035700000914FF0FF3203A90548A047012004B095
:1035800010BD00F045FA204604B010BD3072022094
:103590004922001000BEFDE7074A0346106838B113
:1035A000064903448B428CBF4FF0FF3013607047D5
:1035B000034908461160F3E79471022000000820D7
:1035C000B892022090B110B50446FDF7C7FE084A34
:1035D000D2E90032C01A61EB02010023054A20F053
:1035E0001BF9C4E90001A260002010BD0020704753
:1035F0006815002040420F0003460846114623B9D3
:10360000034BD3E9002300F05FB94FF0FF30704760
:1036100020480210431E012B09D810B51446084655
:1036200001230022214600F0D7F8204610BD4FF0BC
:10363000FF3070470EB44FF0FF3003B0704700BF4B
:103640004FF0FF30704700BF4FF0FF30704700BFB2
:103650004FF0FF30704700BF02288CBF00200120D0
:10366000704700BF08B5FFF795FF00BF9C461446A2
:1036700000B50B460246614683B044B1054D06488D
:1036800001940095FFF74AFF0120FFF783FF034DE8
:103690002C46F4E7FC3A02100C3B0210083B0210E7
:1036A00038B5064C064DFEF72DF8AC4204D254F85E
:1036B000043B9847AC42FAD338BD00BF80380210B3
:1036C000883802100368084611461847437D2DE9E3
:1036D000F04781460F461646002B43D0002A3BDDBB
:1036E000037D00204D1E014615F8012FDFF8848070
:1036F0000A2A01F101040ED0A6421CD02B782146E3
:10370000A3F10D03B3FA83F315F8012F5B090A2A1D
:1037100001F10104F0D1002BEED18142A1EB0001B7
:1037200038441BDC02214046D9F800309847A642B5
:1037300008D02046E2E7864204DD311AD9F800308D
:1037400038449847374417F8013CA3F10D03B3FA06
:1037500083F35B0989F81430BDE8F087D9F80030AD
:103760009847DFE73846D9F800301146BDE8F04702
:10377000184700BFD04802100B682DE9F041802B9C
:103780000D46064605D05A1C2B442A601E71BDE822
:10379000F0810F4B1C68A4B10E4F01F1040801E049
:1037A000246974B12368002BFAD03B680BB1A342A3
:1037B000F6D1204641462A68FFF788FF2469002C8D
:1037C000F0D1002301222B442A601E71BDE8F08154
:1037D000846F0220886F02202DE9F04782B00D46E9
:1037E000924699460746FDF7B9FD4FF0FF366FF058
:1037F00000442F4A821841F10003964274EB030102
:103800003CBF324623462B4820F012F86B1C804602
:1038100003D138461AF010FF0546274B274E1C6887
:10382000274BB9F1000F18BF1E46B4B1BAF1000F13
:103830001AD1DFF8909001E0246974B12368002B5D
:10384000FAD0D9F800300BB19C42F5D120462A4677
:103850003946B0472469002CF0D1B8F1000F1FD1D0
:10386000284602B0BDE8F0874FF00A0ADFF854900E
:1038700002E02469002CF0D02368002BF9D0D9F89D
:1038800000300BB1A342F4D12A4639462046B04756
:10389000012220460DF107018DF807A0B047E8E7A7
:1038A00004481FF0B5FF284602B0BDE8F08700BF0E
:1038B00040420F0038130020846F0220C5360010EC
:1038C000CD360010886F02202DE9F04F984607464C
:1038D0000E4683B0DFF860B0DFF86090DFF860A0DC
:1038E0000192DBF8004014B911E024697CB1D9F8E9
:1038F00000500DB1A542F8D1A268002AF5D031469A
:10390000384690470028F0DD03B0BDE8F08FDAF8C4
:10391000242090450BD8DAF82810019B994204D353
:103920006FF0010003B0BDE8F08F9045F8D10120A1
:103930000021FDF71DFDD4E7846F0220886F02206F
:1039400000000B400A4A13684BB1834202D109E0E0
:10395000984207D003F110021B69002BF8D101B186
:10396000106070470029FCD1036913600161704742
:10397000846F022008B500F0ABF9012008BD00BF3C
:1039800011B1437D03B9037541757047F0B583B03C
:1039900006468DF80700FDF7E1FC4FF0FF356FF0AC
:1039A0000044174A821841F10003954274EB030169
:1039B0003CBF23462A4613481FF03AFF124B0746E6
:1039C0001C689CB1114D01E024697CB12368002B77
:1039D000FAD02B680BB19C42F6D1204601220DF1A2
:1039E0000701FFF773FE2469002CEFD117B93046A9
:1039F00003B0F0BD03481FF00BFF304603B0F0BD2D
:103A000040420F0038130020846F0220886F02208C
:103A100038B504461AF010FE012305461A46204622
:103A20002946FFF7D9FE084B1C682CB163682BB1FF
:103A300098472469002CF9D1284638BD2469002C08
:103A4000F4D1284638BD00BF846F02202DE9F04133
:103A5000A2B004460D46FDF781FC4FF0FF376FF032
:103A60000046274A821841F10003974276EB030192
:103A70003CBF3A46334623481FF0DAFE00262B4669
:103A800007462246204801A90196FFF733FD019B16
:103A900006467BB91D4B1C682CB1636843B198473F
:103AA0002469002CF9D10FBB304622B0BDE8F0816B
:103AB0002469F1E7DFF85480D8F80050EDB1144CD8
:103AC00001E02D6975B12B68002BFAD023680BB18A
:103AD000AB42F6D12846019A02A9FFF7F7FD2D69FE
:103AE000002DF0D1D8F800400195D5E705481FF02A
:103AF0008FFE304622B0BDE8F0810195D3E700BFCC
:103B000040420F003813002079370010846F0220E4
:103B1000886F02200FB400B583B004A951F8040BDC
:103B20000191FFF793FF03B05DF804EB04B0704719
:103B3000B1F1000C1DDD0F4A0F4B126830B5D31ADE
:103B4000B3FA83F30D240D4D5B09411E35F913E0E3
:103B50008C4411F8010F864506D093699B06FCD46E
:103B600061451060F5D130BD93699D06FCD41460A9
:103B7000F3E7704784920220008007408092022081
:103B8000224BB1F1000C10B41C682EDD034600205E
:103B90001F4A591E12689369DB0617D401309369D6
:103BA000DB06FCD41368844501F8013FF3D14CB126
:103BB00050211346916353F8342F02F0380203F575
:103BC00080531A6060465DF8044B70474CB1502139
:103BD0001346916353F8342F02F0380203F58053F3
:103BE0001A6078B15DF8044B70475CB1084B502106
:103BF0001A681346916353F8342F02F0380203F524
:103C000080531A606FF00200ECE700BFF06E0220F4
:103C100084920220054B1B6833B10021044A0548F9
:103C20001268006891631847704700BFF06E022069
:103C300084920220F86E0220024B1A6893691B07D7
:103C4000FCD4704784920220F8B51C4F1C4D3A6892
:103C50001C4EAA4214BF212522250446D6F800C0D6
:103C600018B1BCF1000F10D0F8BDBCF1000FFBD0B3
:103C7000014690632846FCF7FFFC28461249FCF7F2
:103C800041FD124B34601C60F8BD0B460F4A0E49D3
:103C9000306028461360FCF705FD01212846FCF73B
:103CA000EBFC3A6850211346916353F8342F02F02D
:103CB000380203F580531A60F8BD00BF84920220D9
:103CC00000800740F06E0220153C0010F86E0220C4
:103CD00010B50E490E4C0F480F4A104B007821606A
:103CE0000020022112781B78FCF7D0FB0221012072
:103CF000FCF7CCFB4FF4E1312068FDF77DFBBDE81C
:103D0000104001210648FFF71DBE00BF000007401C
:103D100084920220246A0210206A02101C6A021097
:103D20006C0B00202DE9F04F4FF000094FF0010E11
:103D300085B0174602689DF83840C2F86C90516013
:103D4000191E03940546DDE90F46C2F86CE00291A6
:103D500050DD039B01F1FF3A83EA0E035B020193FE
:103D6000002C00F09680C846CB4601213046A04783
:103D7000B9F1000F54D12A684FF00009297989025E
:103D8000019817F8013BCA4518BF00200B430343B5
:103D90001361002C47D04FF0000B03E02A68536BEF
:103DA000D80615D400213046A0474BEA000B5FFA35
:103DB0008BFB0028F2D0834600284BD1029B09F1EF
:103DC00001094B4516D00021002CCED12A68D7E737
:103DD000D2F88080B8F1000F50D1BBF1000F13D1A1
:103DE000CA454FD04FF00008029B09F101094B452D
:103DF000C346E8D14846039B2B7105B0BDE8F08F60
:103E00002A68536B9B051FD400213046A0474BEA1C
:103E1000000B5FFA8BFB0028F2D06FF00109E9E795
:103E200000212A68ACE7BBF1000FC7D1536BDB065A
:103E3000FCD5D2F88080B8F1000FD1D04FF0010B43
:103E4000536D536B9905FCD55846136E4FF0000B1C
:103E50000028B3D0BBF1000FDFD1B8F1000F1ED0A6
:103E600018F0010F1BD118F0080F08BF4FF0FF39F1
:103E70004846039B2B7105B0BDE8F08F4FF0010B56
:103E8000536DC1E7039B002BACD12CB9A346A046D0
:103E9000D7E7A346A0466FE798469B46B4E74FF0A6
:103EA000FF39A7E72DE9F84F4FF0010CDDE90B468C
:103EB000002791460268B3F10008D76605465160B5
:103EC0009DF828B0C2F86CC021DD08F1FF3A14B1AA
:103ED00001213046A0472B685A6F102AFCD0002FD2
:103EE00033D00022BA4504BF8BF0010142EA4122DF
:103EF00042F480721A618CB1D3F88020596B11F0B2
:103F0000400113D0002130465B6DA047C7433846BF
:103F100085F804B0BDE8F88F9A6F7AB9D3F880209D
:103F20005A6B5206F8D500205B6DEFE73046A0478C
:103F30000028EBD12B689A6F002ADDD01B6901376E
:103F4000B84509F8013BC2D1E1E72A799202C9E7F5
:103F5000F8B5064605200C46FDF738FB00EB540C7F
:103F6000BCFBF4FC214B0CEB4C02A3FB025320499D
:103F70009F088C42ACEB930530D801F1D64101F596
:103F8000A10101F62C0100EB4003A1FB03139B0DE3
:103F9000013300244F2A98BF01223168B0FBFCF0A6
:103FA000CC660C6801F5805684F0040404F0060425
:103FB000346088BF0D4CCD6184BFA4FB02429209DE
:103FC0000F62C1F8A0200A46012452F87C5F6B40C2
:103FD0009BB202F580521360CC66F8BD054900EB38
:103FE0004003A1FB0313DB0D0133D2E7CDCCCCCCD6
:103FF0003F420F00893BE6550E4A30B4904214BF51
:10400000202210220C4D0D4B0D4C2A601A60A36823
:1040100032EA0303FBD140F2651503240268037101
:10402000D3661560D3639363C2F8884030BCFFF752
:104030008FBF00BF8C0B00200020024000300240E8
:10404000000002402DE9F04389B00DF1100804464C
:1040500016461F46DDE9122340460D469DF8409066
:10406000FDF75AF93B46CDE901083246294620467C
:10407000CDF80090FFF756FE09B0BDE8F08300BF11
:104080002DE9F04389B00DF11008044616461F468D
:10409000DDE9122340460D469DF84090FDF73CF9BE
:1040A0003B46CDE90108324629462046CDF800902E
:1040B000FFF7F8FE09B0BDE8F08300BF2DE9F84F27
:1040C000374B0746984214BF4FF400234FF4802328
:1040D0000E46344D344C354A2B602360946833EAE5
:1040E0000404FBD10620FDF771FA3946022351F88A
:1040F000042F4FEA462E4FEAD65B704502EA0308CA
:1041000001F5405974EB0B02C9F8003011D34FEAA6
:10411000965CB20201E05246AC460233B3F5807FB2
:1041200007D01EEB020A4BEB0C05904274EB0C0C13
:10413000F1D24FF48072C3EB03249446013A2DD0A0
:10414000B0FBF4F5AE42A4EB0304F6D20CFB03FC87
:10415000120202243B613B4603253E6801F50051F3
:104160007240B0FBFCF002F47F4207F5805CCCF8B3
:104170000020C1F800807E68C9F8004053F8242B65
:10418000264082F0070202F0CF0203F50053CCF87C
:1041900000200E601D600C60BDE8F88F9C46D8E7DB
:1041A00000000840002002400030024000000240B1
:1041B0002DE9F047054606200C46FDF707FA29468B
:1041C00002234FF0000951F8046F4FEA442E01F525
:1041D00040524FEAD45A7045136079EB0A0206EA5E
:1041E000030611D34FEA945CA20201E04246BC46AA
:1041F0000233B3F5807F07D01EEB02084AEB0C07B1
:10420000904279EB0C0CF1D24FF48072C3EB032C8B
:104210001746013A17D0B0FBFCFEA645ACEB030CE9
:10422000F6D903FB07F712022B612B6801F5005149
:10423000534003F47F4305F580552B60B0FBF7F046
:104240000E60BDE8F0871F46EEE700BF2DE9F0479E
:1042500089460546FCF788F9012399F8042099F965
:1042600005C005F12F4EDFF8D8800EF5600E9340A3
:104270004FEA1E5EBCF1000F58F82E7003F1FF33B9
:1042800046DBC2F120018C45644631DC03FA0CF1B7
:1042900039422DD16646D5F868A199F80710BAF1D0
:1042A000000F2CD0C9072CD4BCF1000F01DB6645F0
:1042B00027D1B3401F423CD1D9F8001082B1B44697
:1042C00001EB420931F8022B0CF1120AB2F5005F42
:1042D00038BF921949450CF1010C45F82A20F1D15B
:1042E0003B4348F82E30FCF751F92046BDE8F087F3
:1042F0004FF0FF34FCF74AF92046BDE8F087490744
:10430000D2D56FF00A04FCF741F92046BDE8F087EA
:10431000D2F120040DD403FA04F13942264603D128
:10432000B9E739422646B6D0013C661C03FA04F1CF
:10433000F7D16FF00804FCF729F92046BDE8F087B3
:10434000E46D02202DE9F041D0F868419DF8186035
:10435000121B1F2A38D84EF29F044EF280054FF4EC
:10436000003801EB410C002E18BF254600EBCC04B1
:1043700004F5435400EBCC0C052BDCF8DC704FEA61
:10438000410EDCF8CC60C4F80C800CD95401053B1C
:1043900044F0A0540532052BCCF8DC4002F01F029B
:1043A000CCF8D850F2D8714400EBC1010020520182
:1043B00042EA8363C1F8DC30C1F8D850C1F8DC7040
:1043C000C1F8CC60BDE8F0816FF00400FAE700BFEF
:1043D000F0B5012504688D4024EA05040460B3B3F8
:1043E000D3E901561F68DC6801EB410300EBC3030E
:1043F000C3F8C8704FEA410CC3F8D060C3F8CC5082
:10440000C3F8DC400CEB01034FF0013500EBC30CAB
:104410004FF0004600EBC30E01230EF5865E0C1D27
:1044200001F108078D40CEF8106003FA04F4CEF8CD
:10443000106002F01F028560BB4000F50050046070
:104440000EF1100E03600020CCF8D820F0BD4FF420
:1044500080374FF440264FF4F83501EB410400EB70
:10446000C404C4F8C8704FEA410CC4F8D060C4F862
:10447000CC50C4F8DC30C5E770B5194CE088A6888C
:1044800009F034FA05463046294609F0DBFD638819
:10449000A188E288013B0139013A9BB294F800C03F
:1044A000A180E2806380C3B90CF0FB0C6378D4E98F
:1044B0000E21581940B2030103F0200300F0080058
:1044C00010322CF03A0C43EA000343EA0C0341F1AA
:1044D0000001C4E90E21237070BD4CF0040CE5E727
:1044E0004013002070B5194CE088A68809F0FEF949
:1044F00005463046294609F0A5FD6388A188E28873
:10450000013B013101329BB294F800C0A180E280EE
:104510006380C3B90CF0FB0C6378D4E90E21581901
:1045200040B2030103F0200300F0080010322CF029
:104530003A0C43EA000343EA0C0341F10001C4E9E9
:104540000E21237070BD4CF0040CE5E740130020F1
:10455000F8B52A4C2A4EE0886778257809F0C6F924
:10456000E1883A1A01397B10801000F0220003F034
:104570004403E180D110034301F011010B4306EB2A
:10458000131103F00700097A335CB4F802C00B433F
:104590000CF1FF3C02F0280143F002031FFA8CFCEF
:1045A0000B43D1B205F00105A4F802C009B943F0EC
:1045B0004003BCF1000C18BF4FF0010CC3F3001115
:1045C00023F025031D43531A1B0103F0200345EA82
:1045D0008C0502F00F021D436DB2082A257004D12C
:1045E000EB0644BF25F008052570D4E90E321033E0
:1045F00042F10002C4E90E32F8BD00BF40130020B2
:10460000F0480210F8B52A4C2A4EE08867782578E1
:1046100009F06CF9E1883A1A01317B10801000F042
:10462000220003F04403E180D110034301F01101A3
:104630000B4306EB131103F00700097A335CB4F85F
:1046400002C00B430CF1FF3C02F0280143F00203CF
:104650001FFA8CFC0B43D1B205F00105A4F802C08F
:1046600009B943F04003BCF1000C18BF4FF0010C36
:10467000C3F3001123F025031D43531A1B0103F05C
:10468000200345EA8C0502F00F021D436DB2082A93
:10469000257004D1EB0644BF25F008052570D4E948
:1046A0000E32103342F10002C4E90E32F8BD00BFF1
:1046B00040130020F048021038B57E4CE089431CBE
:1046C000E38109F013F9C0B2A0F12803CE2B00F268
:1046D000D180DFE813F07D017A0122041F04CF00AE
:1046E000CF00170410040D040A0407040404010495
:1046F000FE03FB03F803F503F203AE02AB02B801BD
:10470000B501B201AF018C0180012A042504F30038
:10471000DC0017017503C302C00250033E03F3001F
:10472000DC00CF0031030E030C03E6026801F30046
:10473000DC00230148012501DB03D8037F03F300DC
:10474000DC002101B4039103EC04C904C404F300A8
:10475000DC001701940471046F0443043104F30076
:10476000DC00CF001605F304F104EE045005F3005D
:10477000DC002301CF002A054E05DC01E003F30035
:10478000DC002101CF00CF00CF00CF00CF00CF0051
:10479000CF00CF00CF00CF00CF00CF00CF00CF00A1
:1047A000CF00CF00CF00CF00CF00CF00CF00CF0091
:1047B000CF00CF00CF00CF00CF00CF00CF00CF0081
:1047C000CF00CF00CF00DD03A8029302B702CF00D5
:1047D000CF00CF00CF00B102B4028A026C02CF003A
:1047E000CF00CF00CF006502590250022D02CF004A
:1047F000CF00CF00CF00260212020902BF01CF0076
:10480000CF00CF00CF00CF00CF00CF00CF00CF0030
:10481000CF00CF00CF00CF00CF00CF00CF00CF0020
:10482000CF00CF00CF00CF00CF00CF00CF00CF0010
:10483000CF00CF00CF00CF00CF00CF00CF00CF0000
:10484000CF00CF00CF00CF00CF00CF00CF00CF00F0
:10485000CF00CF00CF00CF00CF00CF00CF00CF00E0
:10486000CF00CF00CF00CF00CF00CF00CF00CF00D0
:10487000CF00BB01D4E90E320433014642F10002FD
:104880000D48C4E90E320AF071FF002038BDA0893E
:1048900009F05AFFA36BA189E26B0E3394F81CC098
:1048A000A36342F100028B1C84F81BC0E081A3814A
:1048B000E263EAE740130020683B02106378B748E0
:1048C0005942C9B29B10CA1002F0110203F0220330
:1048D000134303F0070200EB1313825C1B7A01F011
:1048E0002800134361700343002900F0498443F01A
:1048F0000203D4E90E21083241F10001C4E90E217E
:104900002370C2E70021D4E90E32083342F10002DD
:10491000C4E90E326177B8E70221F4E70121F2E73A
:10492000A0780DF059F8010658BFB0FA80F39B4A01
:10493000C1B202EB4102B2F9202056BF5B098023CD
:104940009B010AB143F00403A26B21780B32A263EE
:10495000E26B01F0290143EA010342F100022370F6
:104960002071E26391E7227E110658BFB2FA82F30A
:10497000217F54BF5B098023627058BF9B0109B13E
:1049800043F004032178A06B01F0010102F028023A
:104990000A43E16B093043EA020341F10001A063DD
:1049A0002370E16371E7E08909F0CEFEA18809F088
:1049B000D7FEA36BE189E26B143301F1020142F1EE
:1049C0000002C4E90E32E1815FE70FF045FC5CE7CD
:1049D0000FF040FC59E7E178A0780CF005F8D4E935
:1049E0000E320C3342F10002C4E90E324DE7A078DA
:1049F0000CF0F2FF020658BFB0FA80F3674AC1B26A
:104A000002EB4102B2F9202056BF5B0980239B01D3
:104A10000AB143F00403A26B21780B32A263E26B6C
:104A200001F0290143EA010342F100022370E07022
:104A3000E2632AE70FF048FC27E70FF041FC24E788
:104A40000FF03AFC21E70FF035FC1EE700200EF0D6
:104A500001FE1AE7E088A57808F048FF01462846DD
:104A60000BF0C2FFE378E288013B013ADBB2E2805F
:104A7000E370002B6DD1A36B2178E26B0F3341F013
:104A8000420142F10002C4E90E322170FDE6E388E2
:104A9000A1892278C81802F00102024492B25B1286
:104AA000891201F02201D01203F044030B4300F0FD
:104AB00011010B43394903F00700084401EB1311BE
:104AC000037C087E1112034301F02801E2800B43AE
:104AD0000AB943F04003D4E90E210F3241F100013D
:104AE000C4E90E212370D0E6A078E5880CF074FFAD
:104AF0000146284609F0A6FAB4E7FFF729FD237816
:104B000003F04403042B7FF4C0AEA36BE189E26B96
:104B10000533A1F1020142F10002C4E90E32E18144
:104B2000B3E6FFF7A9FC23785B077FF5AEAEECE7B1
:104B3000E088A57808F0DAFE014628460BF054FF1D
:104B4000E378E288013B0132DBB2E280E370002BC4
:104B500091D0D4E90E312278E089143322F040025A
:104B600042F00202A0F1020041F10001C4E90E315D
:104B70002270E08189E6A078E5880CF02DFF0146DF
:104B8000284609F05FFADBE7FFF73CFD237803F0E6
:104B90004403042B7FF479AEB7E700BFF04802105E
:104BA000FFF7A0FC23785D077FF56FAEADE7E088E7
:104BB000A57808F09BFE014628460BF015FFE37828
:104BC000E288013B013ADBB2E280E3703BBB237831
:104BD00043F04003D4E90E210F3243F0020341F1C8
:104BE0000001C4E90E2123704FE6A078E5880CF09F
:104BF000F3FE0146284609F025FAE0E7A078E588AB
:104C00000CF0EAFE0146284609F01CFAE378E28837
:104C1000013B0132DBB2E280E370002BD7D0237876
:104C200003F0BF03D6E7FFF7EDFC2EE60FF03EFBE7
:104C30002BE60FF037FB28E6FFF71EFC25E6FFF713
:104C400087FC22E6E088A57808F050FE0146284659
:104C50000BF0CAFEDAE7A1780846BEE6A0780CF0B1
:104C6000BBFE030658BFB0FA80F3B14AC1B202EBF3
:104C70004102B2F9202056BF5B0980239B010AB193
:104C800043F00403A26B21780B32A263E26B01F0C4
:104C9000290143EA010342F100022370A070E2639C
:104CA000F3E5E388A2882078991A00F00100091A38
:104CB00089B25B12921202F02202C81203F044037E
:104CC000134300F011021343994A03F0070002EB6B
:104CD00013131B7A125C0812134343F0020300F013
:104CE0002802E180134300297FF4F5AEF1E66179F3
:104CF00072E6A0780CF070FE050658BFB0FA80F39B
:104D00008B4AC1B202EB4102B2F9202056BF5B09C7
:104D100080239B010AB143F00403A26B21780B327C
:104D2000A263E26B01F0290143EA010342F10002B0
:104D300023706071E263A8E5A36B6178E26B0933CD
:104D400021F07F0042F10002C4E90E326176A076C4
:104D50009BE5E08909F0F8FC09F0F6FCA36BE1891A
:104D6000E26B143301F1020142F10002C4E90E3298
:104D70006080E18189E5E38862882178D01801F0BC
:104D80000101014489B25B12921202F02202C812A0
:104D900003F04403134300F011021343644A03F089
:104DA0000700104402EB1312037C107E0A12034327
:104DB00002F02802E180134300297FF48CAE88E6DC
:104DC000D4E90E326178093342F10002C4E90E32AF
:104DD00021765AE5E08909F0B7FC09F0B5FCA36B30
:104DE000E189E26B143301F1020142F10002C4E9EE
:104DF0000E32A080E18148E5A0780CF0EDFD0206BE
:104E000058BFB0FA80F34A4AC1B202EB4102B2F98C
:104E1000202056BF5B0980239B010AB143F00403A5
:104E2000A26B21780B32A263E26B01F0290143EA05
:104E3000010342F100022370E071E26325E5637E25
:104E4000A27E03F07F0313431A0658BFB3FA83F21E
:104E5000217F54BF52098022637058BF920109B16B
:104E600042F004022178A06B01F0010103F0280355
:104E70000B43E16B093042EA030241F10001A063F8
:104E80002270E16301E5E388A28876E72179A3E552
:104E9000FFF728FBF9E4E08909F056FC09F054FC1F
:104EA000A36BE189E26B143301F1020142F10002CC
:104EB000C4E90E32A081E181E7E40FF0EFF9E4E408
:104EC0000FF0EAF9E1E40FF0E3F9DEE40FF0DEF9C8
:104ED000DBE40FF0D9F9D8E40FF0D2F9D5E40FF004
:104EE000CBF9D2E40FF0C4F9CFE40FF0BFF9CCE472
:104EF0000FF0B8F9C9E4236D002B01DD0023236511
:104F0000012038BD60780B4BC0F3800018600BF0B7
:104F10006FFABAE40FF0A4F9B7E40FF09FF9B4E424
:104F2000E08909F011FC618841E5E3886288BAE60E
:104F3000F0480210C0130020E08909F005FC09F0D8
:104F400003FCA36BE189E26B143301F1020142F12E
:104F50000002C4E90E32E080E18196E42378E18822
:104F600003F0010303EB41039BB24A12891201F0E3
:104F7000220102F04402D8120A4300F01100024359
:104F8000814902F00700084401EB1211027C087EFF
:104F90001912024301F02801E3800A430BB942F0E1
:104FA0004002D4E90E310F3341F10001C4E90E3162
:104FB00022706AE4A1790FE5A0780CF00DFD0306DC
:104FC00058BFB0FA80F3704AC1B202EB4102B2F9A5
:104FD000202056BF5B0980239B010AB143F00403E4
:104FE000A26B21780B32A263E26B01F0290143EA44
:104FF000010342F100022370A071E26345E4E088FE
:1050000008F074FC63781901C9B223F00F0341EA78
:10501000201100F00F0003431A06637000F1838033
:10502000B3FA83F252099201574800EB4300B0F9FA
:10503000200008B142F00402207803F0280300F0B9
:10504000010003431A43E088227008F0FBFFD4E913
:105050000E32123342F10002C4E90E3215E4E08947
:1050600009F072FBE188A2E4E2882178531241F34F
:105070000001921289B202F0220203F044031343AA
:10508000CA12414802F01102134303F0070200EB79
:105090001313825C1B7A0812134343F0020300F0DF
:1050A0002802E180134300297FF415AD11E5E17971
:1050B00092E4E388A289F6E500218DE4A0780CF063
:1050C0008BFC050658BFB0FA80F32F4AC0B202EB42
:1050D0004002B2F9202056BF5B0980239B010AB130
:1050E00043F004032078D4E90E2100F029000B32AC
:1050F00043EA000341F10001C4E90E212370FFF7E8
:10510000C4BBE08808F0F2FB627822F00F0343EAA8
:105110002013DBB202F00F0141EA001118066370A0
:10512000C9B27FF57DAF80227EE7A0780CF054FCF9
:10513000010658BFB0FA80F3134AC1B202EB410234
:10514000B2F9202056BF5B0980239B010AB143F0CE
:105150000403A26B21780B32A263E26B01F02901F8
:1051600043EA010342F1000223706070E263FFF73B
:105170008CBB617830E4E08909F0E6FAA18916E495
:1051800043F04203FFF7B5BBF04802102DE9F041B0
:105190007F4C0546E089431CE38108F0A7FBC3B2BE
:1051A000093BF02B00F20181DFE813F00E05FF0050
:1051B000FF00FF00FF00FF00FF00FF00FF00FF00F7
:1051C000FF00FF00FF00FF00FF00FF004B06FF0095
:1051D000FF00FF00FF00FF00FF00FF004206370650
:1051E0002A06580622061B06FF00FF001706500677
:1051F0000A06FC05DB05CC05FF00FF00FF00FF00F1
:10520000FF00AE057C056105FF00FF005E05FF00A5
:10521000FF00FF00FF00FF00FF00FF00FF00FF0096
:10522000FF005A054F053B05FF00FF00FF00FF0090
:10523000FF00E702DD02CA02FF00FF00FF00FF00DF
:10524000FF00C602BA02A702FF00FF00FF00FF0036
:10525000FF00A30299028602FF0083028002790305
:105260007603F6007303850382037F037C03280122
:105270002501F400F60012010F01A803A003980312
:10528000780270026802FF005502FF00FF00FF0075
:10529000FF00510247023402FF00FF00FF00FF0041
:1052A000FF0032021202E701FF00FF00FF00FF00D3
:1052B000FF00E301BE018901FF00FF00FF00FF00C6
:1052C000FF0087015D012B01FF00FF00FF00FF00D1
:1052D000FF00650340031203FF00FF00FF00FF0013
:1052E000FF001003EB022F04FF00FF00FF00FF0090
:1052F000FF002D0428041A04FF00FF00FF00FF0038
:10530000FF001504F603CD03FF00FF00FF00FF00C0
:10531000FF00B003E004B704FF00FF00FF00FF0040
:10532000FF00FF00FF00FF00FF00FF00FF00FF0085
:105330006604FF00FF00FF00FF00FF00FF00FF000A
:10534000FF00FF00FF00FF00FF00FF00FF00FF0065
:10535000FF00FF00FF00FF00FF00FF005604FF00FA
:10536000F104FF00E204FF00FF00FF000305FF005F
:10537000FF00FF00FF00FF00FF00FF00FF00FF0035
:10538000FF00FF00FF00FF00FF00FF00690300BFF8
:10539000401300206B782B70D4E90E32083342F1B1
:1053A0000002C4E90E32BDE8F081A36B607EE189A2
:1053B000E26B043300F1FF3001F1FF3142F10002F2
:1053C000C4E90E326076E181EDE763782B70E3E7A4
:1053D000E0892D88431CE38108F088FA45FA80F0C3
:1053E00008F084FAD4E90E32133342F10002C4E922
:1053F0000E32A071D7E723792B70CDE763792B703C
:10540000CAE7E0892D88431CE38108F06FFA45FA6A
:1054100080F008F06BFA6278C64D5310121AD1B2C0
:10542000821002F0220203F044031343CA1002F078
:105430001102134303F0070205EB1313AA5C1B7A56
:1054400001F02800134361700343002900F0EB8151
:1054500043F00203D4E90E21133241F10001C4E903
:105460000E2123709FE72A786378B248991A5B105F
:105470009210C9B202F0220203F044031343CA108F
:1054800002F01102134303F0070200EB1313825CD6
:105490001B7A01F02800134361700343002900F0D8
:1054A000E78143F00203D4E90E21083241F1000103
:1054B000C4E90E212370BDE8F0816A78D4E7E08961
:1054C0002D88431CE38108F011FA45FA80F008F0BA
:1054D0000DFA2278637802F0010299185A100B181D
:1054E0008110DBB201F0220102F044020A43D9101C
:1054F00001F011010A438F4D02F00701294405EB29
:105500001215287E0A7C03F02801024363700A43C7
:105510000BB942F04002D4E90E31133341F10001DE
:10552000C4E90E3122703EE722786378297802F0D0
:1055300001021A440A44D2B25B10891001F0220120
:1055400003F04403D0100B4300F0110003437949EA
:1055500003F00700084401EB1311037C087E02F0FE
:105560002801034362700B43002A9CD143F040039F
:1055700099E7227863786978D9E7E0892D88431C18
:10558000E38108F0B3F945FA80F008F0AFF96178EB
:1055900082104B100144C9B202F0220203F044030E
:1055A0001343CA1002F011021343624D03F00700C7
:1055B00005EB13122844037C107E01F028020343FC
:1055C0006170134300297FF445AF43F0400341E786
:1055D0002A786378D118C9B25B10921002F02202C7
:1055E00003F04403C810134300F011000343514A71
:1055F00003F00700104402EB1312037C107E01F04D
:10560000280203436170134300297FF44CAFADE7D8
:105610006A78DEE7E0892D88431CE38108F066F9AB
:1056200045FA80F008F062F9D4E90E32133342F102
:105630000002C4E90E326070B5E62978D4E90E3272
:10564000083342F10002C4E90E326170ABE66978BA
:10565000D4E90E32F4E7E0892D88431CE38108F099
:1056600045F9617845FA80F008F0ECFCD4E90E3297
:10567000133342F10002C4E90E3294E6E0892D882A
:10568000431CE38108F032F9A179EBE7E0892D882A
:10569000431CE38108F02AF9E179E3E7E0892D88EA
:1056A000431CE38108F022F92179DBE7A3786B70D2
:1056B00072E6E3786B706FE6E0892D88431CE38126
:1056C00008F014F945FA80F008F010F9D4E90E3228
:1056D000133342F10002C4E90E32207163E62978E7
:1056E000D4E90E32083342F10002C4E90E322171CE
:1056F00059E66978D4E90E32F4E7E0892D88431C35
:10570000E38108F0F3F845FA80F008F0EFF8D4E907
:105710000E32133342F10002C4E90E32607142E6E8
:105720002978D4E90E32083342F10002C4E90E327E
:10573000617138E6F04802106978D4E90E32F2E778
:10574000E0892D88431CE38108F0D0F845FA80F009
:1057500008F0CCF8D4E90E32133342F10002C4E968
:105760000E32A0701FE62978D4E90E32083342F1D8
:105770000002C4E90E32A17015E66978D4E90E3250
:10578000F4E72B786178B34A0B4002EB4302B2F99D
:1057900020206370002A15BF9420902054215021AE
:1057A00014BF1422102223B113F0800F14BF01463E
:1057B0001146D4E90E20083203F0280341EA030120
:1057C00040F10000C4E90E202170ECE56B78D9E7C8
:1057D000E0892D88431CE38108F088F845FA80F0C1
:1057E00008F084F82278637802F001029A1A121AFB
:1057F00081105B10D2B201F0220103F044030B438D
:10580000D110944D01F011010B4303F0070105EB9A
:105810001313695C1B7A02F028000B436270034388
:10582000002A7FF415AE43F0420313E62278637832
:10583000297802F001029A1A521A5B108910D2B22A
:1058400001F0220103F044030B43D110814801F021
:1058500011010B4303F0070100EB1313415C1B7AAA
:1058600002F028000B4362700343002A7FF419AE54
:1058700043F0420317E6227863786978D9E7D4E9E0
:105880000E3229880A3342F10002C4E90E32A181A6
:1058900089E52B786B707FE523796B707CE5637904
:1058A0006B7079E5A3782B7076E5E3782B7073E560
:1058B00063786B7070E5E0892D88431CE38108F004
:1058C00015F845FA80F008F011F8D4E90E321333D8
:1058D00042F10002C4E90E32E07164E5E0892D88EE
:1058E000431CE38108F002F86179BBE6E0892D886A
:1058F000431CE38107F0FAFFA178B3E6E0892D8825
:10590000431CE38107F0F2FFE178ABE66A78637845
:105910009110981A5B1001F0220103F044030B432D
:10592000C1104C4D01F011010B4302F0280103F0AE
:10593000070205EB1313AA5C1B7AC0B213430B4397
:10594000002895D0ADE5E0892D88431CE38107F060
:10595000CDFF45FA80F007F0C9FF63783D4A034365
:10596000DBB202EB4302B2F920206370003A18BFA9
:1059700001229200002B40F0078442F04002D4E95B
:105980000E1003F02803133142EA030240F1000035
:10599000C4E90E10227006E52A7861782D4B0A437F
:1059A00003EB4203B3F920306270003B18BF0123C0
:1059B0009B00002A40F0E38343F04003D4E90E103B
:1059C00002F02802083143EA020340F10000C4E972
:1059D0000E102370E7E46A7861781E4B0A43DFE714
:1059E000E0892D88431CE38107F080FF45FA80F0B1
:1059F00007F07CFF6378174A4340B1E72A78617863
:105A0000144B4A40CCE76A78F9E7E0892D88431CBB
:105A1000E38107F06BFF45FA80F007F067FF6378DA
:105A20000C4A034002EB4302B2F920206370002AC3
:105A300015BF942090205421502114BF142210220D
:105A400023B113F0800F14BF01461146D4E90E2094
:105A50001332B1E6F0480210A08908F075FEA36B7E
:105A60002880A189E26B0E3301F1020142F10002AC
:105A7000C4E90E32A18196E4E089431CE38107F07A
:105A800035FFE38947B25A1C1846E28107F02EFF22
:105A900000F0F803382B8046C6B200F3E781382BBC
:105AA00000F22382DFE813F07F02210221022102AB
:105AB000210221022102210255022102210221029A
:105AC00021022102210221022A03210221022102B4
:105AD00021022102210221020803210221022102C6
